:020000040800F2
:1000000028080220990200080D1B0008851A000824
:10001000091B0008490300083928000800000000F7
:10002000000000000000000000000000311C00087B
:10003000C503000800000000911B0008F51C000823
:100040003D280008B3020008B3020008B30200080C
:10005000B3020008B3020008C7030008B302000897
:10006000DD030008E7030008B3020008B30200083C
:10007000B3020008B3020008B3020008B30200088C
:10008000B3020008B3020008B3020008B30200087C
:10009000B3020008B3020008B3020008B30200086C
:1000A000B3020008B3020008B3020008B30200085C
:1000B000B3020008611D0008B3020008B302000883
:1000C000B3020008B3020008B3020008B30200083C
:1000D000B302000895270008B3020008B302000825
:1000E000D3030008B3020008B3020008B3020008FB
:1000F000B3020008B3020008B3020008B30200080C
:10010000B3020008B3020008B3020008B3020008FB
:10011000B3020008B3020008B3020008B3020008EB
:10012000B3020008B3020008B3020008B3020008DB
:10013000B3020008B3020008B3020008B3020008CB
:10014000B3020008B3020008B3020008B3020008BB
:10015000B3020008B3020008B3020008B3020008AB
:10016000B3020008B3020008B3020008B30200089B
:10017000B3020008B3020008B30200080000000048
:10018000B3020008B3020008B3020008B30200087B
:10019000B3020008B3020008B3020008B30200086B
:1001A000B3020008B3020008B3020008B30200085B
:1001B000B3020008B3020008B3020008B30200084B
:1001C000B3020008B302000800000000B3020008F8
:1001D000B3020008B3020008B3020008B30200082B
:1001E000B3020008B3020008B3020008B30200081B
:1001F000B3020008B302000800F002F800F03CF877
:100200000AA090E8000C82448344AAF10107DA4571
:1002100001D100F031F8AFF2090EBAE80F0013F087
:10022000010F18BFFB1A43F0010318479427000081
:10023000B4270000103A24BF78C878C1FAD8520712
:1002400024BF30C830C144BF04680C607047000050
:100250000023002400250026103A28BF78C1FBD8CF
:10026000520728BF30C148BF0B6070471FB502F06E
:1002700095FB1FBD10B510BD00F033F81146FFF718
:10028000F5FF02F01FFB00F051F803B4FFF7F2FF97
:1002900003BC02F0DBFA0000094880470948004728
:1002A000FEE7FEE7FEE7FEE7FEE7FEE7FEE7FEE726
:1002B000FEE7FEE704480549054A064B7047000083
:1002C000FD1C0008F901000828020220280802206D
:1002D00028040220280402207047704770477047A6
:1002E0007047754600F02CF8AE4605006946534647
:1002F00020F00700854618B020B5FFF7DBFFBDE80A
:1003000020404FF000064FF000074FF000084FF07C
:10031000000B21F00701AC46ACE8C009ACE8C0090D
:10032000ACE8C009ACE8C0098D46704710B504467A
:10033000AFF300802046BDE81040FFF7A6BF0000E5
:1003400000487047C801022000BFFEE710B500BF9B
:1003500000BF00BF00BF00BFBFF34F8F00BF00BF93
:1003600000BF00BF00BF00BFBFF36F8F00BF00BF63
:1003700000BF0020114908601148006840F40030B7
:100380000F49086000BF00BF00BFBFF34F8F00BF21
:1003900000BF00BF00BF00BF00BFBFF36F8F00BF33
:1003A00000BF00BF00BF01F0F5FB04484C300068FF
:1003B00040F0040001494C31086010BD50EF00E0EE
:1003C00014ED00E0704710B54FF4005000F0BAF89B
:1003D00010BD10B5012000F0B5F810BD10B5042017
:1003E00000F0B0F810BD10B5082000F0ABF810BD5B
:1003F00000B587B000BF2648006840F001002449DE
:1004000008600846006800F00100019000BF00BFCE
:1004100000BF0846006840F0040008600846006815
:1004200000F00400019000BF00BF00BF0846006854
:1004300040F0800008600846006800F080000190ED
:1004400000BF00BF134803900C20029001200490CD
:100450000220059002A9104800F082F80D48039090
:100460004FF400500290012004900220059002A950
:100470000A4800F075F80A48039001200290022013
:100480000490059002A9074800F06AF807B000BD83
:100490003038024000002110001C024000080240D9
:1004A0000000111000000240014691F835000228BA
:1004B00003D08020486501207047052081F8350071
:1004C0000868006820F001000A6810600020F3E767
:1004D00010B50446012C07D0042C1BD0082C1ED0CC
:1004E000B4F5005F29D123E00221154800F04CF952
:1004F0000221134800F040F9012805D10022012112
:100500000F4800F045F904E0012211460C4800F0C4
:100510003FF913E001210A4800F036F90EE002210C
:10052000074800F031F90121054800F02DF905E0F8
:100530000221034800F028F900E000BF00BF10BD11
:100540000004024010B5044604480068204020B171
:10055000024804602046FFF7BBFF10BD143C014079
:10056000F8B502460B46002100250024002000BFFC
:10057000E4E0012606FA01F51E6806EA0504AC422D
:1005800071D15E68022E02D05E68122E13D1CF08A0
:1005900002F1200656F827004E07F70E0F26BE4040
:1005A000B0434F07FF0E1E69BE403043CF0802F133
:1005B000200646F8270010684F000326BE40B043CF
:1005C0001E7906F003064F00BE40304310605E689F
:1005D000012E08D05E68022E05D05E68112E02D072
:1005E0005E68122E13D190684F000326BE40B043C0
:1005F0004F00DE68BE4030439060506801268E4058
:10060000B0431E79C6F300168E4030435060D06868
:100610004F000326BE40B0434F009E68BE403043AB
:10062000D0605E6806F08056B6F1805FA8D100BF4A
:10063000444E366846F48046424F3E603E46366839
:1006400006F48046009600BF00BF3F4E8F0856F864
:1006500027008E07370F0F26BE40B0433B4EB242F5
:1006600002D100262EE068E0394EB24201D10126C7
:1006700028E0384EB24201D1022623E0364EB24283
:1006800001D103261EE0354EB24201D1042619E005
:10069000334EB24201D1052614E0324EB24201D1AE
:1006A00006260FE0304EB24201D107260AE02F4E57
:1006B000B24201D1082605E02D4EB24201D10926F1
:1006C00000E00A268F073F0FBE4030431E4E8F08C2
:1006D00046F82700274E3068A0435E6806F480364F
:1006E000B6F5803F00D12043224E3060361D306881
:1006F000A0435E6806F40036B6F5003F00D1204303
:100700001C4E361D3060361D3068A0435E6806F40E
:100710008016B6F5801F00D12043164E0836306093
:10072000361D3068A0435E6806F40016B6F5001F5B
:1007300000D120430F4E0C363060491C1029FFF4C5
:1007400018AFF8BD443802400838014000000240AC
:100750000004024000080240000C02400010024069
:100760000014024000180240001C02400020024019
:1007700000240240003C0140024613690B400BB1CB
:10078000012000E00020704742694A404261704702
:100790000AB1816101E00B04836170470148006880
:1007A000704700001C00022070B504460CB90120FF
:1007B00070BD4CF6CC402168086045F25550216868
:1007C0000860D4E9001048602168A0688860FFF7DD
:1007D000E5FF054606E0FFF7E1FF401B302801D9A1
:1007E0000320E5E72068C0680028F4D1206801698B
:1007F000E068814203D02168E068086103E04AF6BE
:10080000AA20216808600020D2E7000002480068A2
:10081000401C0149086070471C00022010B50848C0
:10082000006840F4007006490860052000F06AF88E
:100830000F2000F007F800F019F8002010BD0000AC
:10084000003C024070B50446074800684FF47A71D6
:10085000B0FBF1F5284600F093FC00222146501E23
:1008600000F012F8002070BD08000220704700BFA1
:1008700000F01F02012191404209920002F1E022A2
:10088000C2F8001100BF70472DE9F05F80460D46A9
:100890001646002701F03CF9074639462A463346FA
:1008A00001F00700C0F1070ABAF1040F02D94FF0B6
:1008B000040A01E0C0F1070AD14600F1040ABAF1C6
:1008C000070F02D24FF0000A01E0A0F1030AD4465C
:1008D0004FF0010A0AFA09FAAAF1010A0AEA020A21
:1008E0000AFA0CFA4FF0010B0BFA0CFBABF1010BFF
:1008F0000BEA030B4AEA0B042146404601F010F9CB
:10090000BDE8F09F00BF00F00702064B19684FF6E4
:10091000FF031940044B0B4343EA0221014B1960CA
:1009200000BF70470CED00E00000FA0538B5002468
:1009300000BF2048006840F080501E49086008460B
:10094000006800F08050009000BF00BF1A480068A7
:1009500040F4803018490860FFF720FF044607E0A4
:10096000FFF71CFF001BB0F57A7F01D9032038BDCB
:100970001148406800F48030B0F5803FF0D10E4857
:10098000006840F400300C490860FFF707FF044698
:1009900007E0FFF703FF001BB0F57A7F01D90320C2
:1009A000E5E70548406800F40030B0F5003FF0D1BD
:1009B0000020DCE7403802400070004070B504467B
:1009C0000D4600266648006800F00F00A8420ED2CF
:1009D0006348006820F00F0028436149086008461A
:1009E000006800F00F00A84201D0012070BD2078FF
:1009F00000F00200022807D15A48006820F0F000F9
:100A0000A168084357490860207800F001000028D9
:100A100060D06068012807D1524808380068C0F3E8
:100A20004040A0B90120E1E76068022807D14D48A5
:100A300008380068C0F3406048B90120D6E749484B
:100A400008380068C0F3400008B90120CEE74548E7
:100A5000006820F003006168084342490860FFF71E
:100A60009DFE06466068012810D108E0FFF796FE5B
:100A7000801B41F28831884201D90320B6E739480A
:100A8000006800F00C000428F0D123E06068022820
:100A900010D108E0FFF782FE801B41F288318842C6
:100AA00001D90320A2E72F48006800F00C000828B5
:100AB000F0D10FE008E0FFF771FE801B41F28831B2
:100AC000884201D9032091E72648006800F00C0015
:100AD0000028F0D12248006800F00F00A8420ED98B
:100AE0001F48006820F00F0028431D490860084691
:100AF000006800F00F00A84201D0012076E72078BE
:100B000000F00400042807D11648006820F4E050E3
:100B1000E168084313490860207800F008000828BD
:100B200008D11048006820F46040216940EAC10003
:100B30000C49086000F04EF80A49096801F0F0011C
:100B4000F02292FAA2F2B2FA82F2D140064A515C45
:100B5000C840064908600F20FFF774FE002045E7F3
:100B6000003C024008380240A62900080800022084
:100B700001480068704700000800022000B5FFF738
:100B8000F7FF0749096801F4E0514FF4E05292FA87
:100B9000A2F2B2FA82F2D140024A515CC84000BDD2
:100BA00008380240B629000800B5FFF7E1FF074901
:100BB000096801F460414FF4604292FAA2F2B2FA7D
:100BC00082F2D140024A515CC84000BD0838024060
:100BD000B629000870B50021002200230020274C10
:100BE000246804F00C0424B1042C04D0082C41D156
:100BF00003E0234840E023483EE0204C241F2468C3
:100C000004F03F011D4C241F246804F4800484B1C7
:100C10001C4CB4FBF1F5194C241F246847F6C07630
:100C2000344096FAA6F6B6FA86F6F44005FB04F2CE
:100C30000FE0134CB4FBF1F5104C241F246847F669
:100C4000C076344096FAA6F6B6FA86F6F44005FB6E
:100C500004F20A4C241F246804F440344FF4403555
:100C600095FAA5F5B5FA85F5EC40641C6300B2FB76
:100C7000F3F001E0024800BF00BF70BD0838024039
:100C80000024F40040787D0138B504460025207822
:100C900000F00100002871D0FE48006800F00C0050
:100CA00004280DD0FB48006800F00C00082813D180
:100CB000F848001F006800F48000B0F5800F0BD1E9
:100CC000F44808380068C0F34040002869D06068E4
:100CD000002866D1012038BD00BF6068B0F5803FB4
:100CE00008D1EC480838006840F48030E9490839F8
:100CF00008602EE0606868B9E6480838006820F4AB
:100D00008030E449083908600846006820F48020F3
:100D100008601EE06068B0F5A02F0DD1DD480838EE
:100D2000006840F48020DB49083908600846006804
:100D300040F4803008600CE0D6480838006820F4A1
:100D40008030D449083908600846006820F48020C3
:100D5000086000BF606890B1FFF720FD054606E01F
:100D6000FFF71CFD401B642801D90320B3E7C948E5
:100D700008380068C0F340400028F1D011E0FFF7C8
:100D80000DFD054606E0FFF709FD401B642801D96B
:100D90000320A0E7BF4808380068C0F3404000289F
:100DA000F1D1207800F00200022873D1B948006820
:100DB00000F00C0058B1B748006800F00C0008289B
:100DC00021D1B448001F006800F48000D8B9B148B0
:100DD00008380068C0F3400020B1E068012801D065
:100DE000012078E7AB480838006820F0F800F822C6
:100DF00092FAA2F2B2FA82F2216991400843A5491F
:100E00000839086046E0E06850B3A2480838006836
:100E100040F001009F4908390860FFF7BFFC054614
:100E200006E0FFF7BBFC401B022801D9032052E774
:100E3000984808380068C0F340000028F1D0954871
:100E40000838006820F0F800F82292FAA2F2B2FA0C
:100E500082F22169914008438E490839086019E0FF
:100E60008C480838006820F001008A490839086079
:100E7000FFF794FC054606E0FFF790FC401B0228B4
:100E800001D9032027E7834808380068C0F34000F1
:100E90000028F1D1207800F00800082836D16069D8
:100EA000D0B17C486C30006840F0010079496C3169
:100EB0000860FFF773FC054606E0FFF76FFC401B78
:100EC000022801D9032006E772486C300068C0F39D
:100ED00040000028F1D019E06E486C30006820F026
:100EE00001006C496C310860FFF758FC054606E0CC
:100EF000FFF754FC401B022801D90320EBE66548AC
:100F00006C300068C0F340000028F1D1207800F078
:100F10000400042871D100BF5E483830006840F0FA
:100F200080505C49383108600846006800F0805005
:100F3000009000BF00BF5848006840F480705649D8
:100F40000860FFF72BFC054606E0FFF727FC401B77
:100F5000642801D90320BEE64F48006800F4807081
:100F60000028F2D000BFA068012808D149486830A5
:100F7000006840F001004749683108602DE0A06832
:100F800068B944486830006820F001004149683180
:100F900008600846006820F0040008601DE0A068B2
:100FA00005280DD13B486830006840F004003949FD
:100FB000683108600846006840F0010008600CE0F5
:100FC00034486830006820F0010032496831086018
:100FD0000846006820F00400086000BFA068A8B1BF
:100FE000FFF7DCFB054609E0FFF7D8FB401B41F2A9
:100FF0008831884202D903206DE61BE0254868301D
:101000000068C0F340000028EED013E0FFF7C6FBF5
:10101000054608E0FFF7C2FB401B41F288318842D9
:1010200001D9032057E61B4868300068C0F3400030
:101030000028EFD1A06988B31648006800F00C00C2
:10104000082873D0A069022864D1124808380068C3
:1010500020F080700F4908390860FFF79FFB0546B4
:1010600006E0FFF79BFB401B022801D9032032E674
:10107000084808380068C0F340600028F1D1D4E97E
:101080000701084347F6C07292FAA2F2B2FA82F25E
:10109000616A04E0083802400070004058E0914066
:1010A00008430122A16AC2EB51014FF4403292FA87
:1010B000A2F2B2FA82F2914008434FF0706292FAC3
:1010C000A2F2B2FA82F2E16A914008434FF0E042A4
:1010D00092FAA2F2B2FA82F2216B914008431D49C2
:1010E0000860081F006840F08070091F0860FFF763
:1010F00055FB054606E0FFF751FB401B022801D9CE
:101100000320E8E51348001F0068C0F34060002892
:10111000F1D01DE00F48001F006820F080700D49DD
:10112000091F0860FFF73AFB054607E00EE0FFF7EE
:1011300035FB401B022801D90320CCE50548001FE0
:101140000068C0F340600028F1D101E00120C2E551
:101150000020C0E504380240042808D14FF0E02107
:10116000096941F004014FF0E022116107E04FF0FE
:10117000E021096921F004014FF0E022116170477C
:1011800070B504462546681EB0F1807F01D301206A
:101190000FE0681E4FF0E02148610F214FF0FF3053
:1011A00000F0BEFC00204FF0E021886107200861BC
:1011B000002070BD70477047704710B50446206826
:1011C0000069C0F34000D8B12068C068C0F3400097
:1011D000B0B16FF00200216808610120207620681C
:1011E000806900F0030018B12046FFF7E5FF05E035
:1011F000204600F0BEF8204600F0C4F9002020761A
:1012000020680069C0F38000D8B12068C068C0F3CE
:101210008000B0B16FF004002168086102202076E0
:101220002068806900F4407018B12046FFF7C4FFC1
:1012300005E0204600F09DF8204600F0A3F90020CC
:10124000207620680069C0F3C000D8B12068C0686B
:10125000C0F3C000B0B16FF008002168086104203D
:1012600020762068C06900F0030018B12046FFF71F
:10127000A3FF05E0204600F07CF8204600F082F94C
:101280000020207620680069C0F30010D8B12068E3
:10129000C068C0F30010B0B16FF0100021680861A1
:1012A000082020762068C06900F4407018B12046FC
:1012B000FFF782FF05E0204600F05BF8204600F0D3
:1012C00061F9002020762068006900F0010058B123
:1012D0002068C06800F0010030B16FF001002168A3
:1012E0000861204600F076F920680069C0F3C0105C
:1012F00058B12068C068C0F3C01030B16FF08000F2
:10130000216808612046FFF755FF20680069C0F397
:10131000002058B12068C068C0F3C01030B16FF031
:101320008000216808612046FFF744FF20680069BB
:10133000C0F3801058B12068C068C0F3801030B18D
:101340006FF0400021680861204600F053F92068E2
:101350000069C0F3401058B12068C068C0F3401065
:1013600030B16FF02000216808612046FFF723FFAD
:1013700010BD704770B504460D46164600BF94F880
:101380003800012801D1022070BD012084F8380006
:1013900000BF022084F839000C2E51D005DC4EB17C
:1013A000042E1ED0082E7AD133E0102E60D0142ED9
:1013B000F9D175E02946206800F05AFD206880695F
:1013C00040F00800216888612068806920F00400EE
:1013D00021688861206880692969084321688861DB
:1013E00077E02946206800F07DFD2068806940F4A0
:1013F0000060216888612068806920F4806021682D
:10140000886120688069296940EA01202168886133
:101410005FE02946206800F0A3FD2068C06940F025
:1014200008002168C8612068C06920F004002168B4
:10143000C8612068C069296908432168C86148E01B
:101440002946206800F0CAFD2068C06940F40060A9
:101450002168C8612068C06920F480602168C86183
:101460002068C069296940EA01202168C86130E02C
:101470002946206800F0E4FD2068406D40F0080037
:10148000216848652068406D20F0040021684865A7
:101490002068406D296908432168486519E017E014
:1014A0002946206800F0F8FD2068406D40F4006097
:1014B000216848652068406D20F480602168486597
:1014C0002068406D296940EA01202168486500E0F4
:1014D00000BF00BF012084F8390000BF002084F85D
:1014E000380000BF00BF4FE710B504460CB901201B
:1014F00010BD94F8390028B9002084F8380020463F
:1015000000F00CF8022084F83900211D206800F05A
:101510002FFC012084F839000020E9E710B586B0DF
:10152000044600BF1548006840F0020013490860F7
:101530000846006800F00200009000BF00BF00BF36
:101540000E481038006840F002000C49103908605D
:101550000846006800F00200009000BF00BF0220B3
:101560000190032004900120039002200290059036
:1015700001A90348FEF7F4FF06B010BD4038024051
:10158000000402407047000030B504460D460122B9
:101590002946206800F05EFC0C492068884203D090
:1015A0000B492068884201D1012000E0002028B1C9
:1015B0002068406C40F4004021684864206800685E
:1015C00040F0010021680860002030BD00000140AB
:1015D0000004014010B5044604492068884203D144
:1015E00001210348FFF7D0F810BD000000040040BF
:1015F00000040240704770472DE9F041044620681E
:10160000C569206806682068876805F00F08B8F18A
:10161000000F0AD105F0200038B106F0200020B1FB
:10162000204600F040FEBDE8F081B8F1000F79D00F
:1016300040F201103840002874D005F0010048B194
:1016400006F4807030B1012021680862E06E40F03D
:101650000100E06605F0020048B107F0010030B17A
:10166000022021680862E06E40F00400E06605F0A8
:10167000040048B107F0010030B10420216808627D
:10168000E06E40F00200E06605F0080060B106F090
:10169000200010B907F0010030B10820216808626D
:1016A000E06E40F00800E066E06E58B305F0200000
:1016B00028B106F0200010B1204600F0F4FDE06EE5
:1016C00000F0080020B92068806800F0400018B3DE
:1016D000204600F0C8FD2068806800F04000B8B1E6
:1016E0002068806820F0400021688860606E50B1FA
:1016F0001748616E0865606EFEF7D6FE10B1606E29
:10170000016D88470DE02046FFF775FF09E009E00D
:101710002046FFF770FF04E02046FFF76CFF002033
:10172000E06680E705F0800030B106F0800018B177
:10173000204600F0C3FF76E705F0400030B106F028
:10174000400018B1204600F09EFD6CE700BF6AE73C
:101750004F22000810B504460CB9012010BDA06945
:1017600000B100E000BF94F8690028B9002084F8B7
:101770006800204600F02AF8242084F869002068D8
:10178000006820F0010021680860204600F0D0FDCC
:10179000012800D1E2E7606A10B1204600F0A8FC01
:1017A0002068406820F49040216848602068806884
:1017B00020F02A00216888602068006840F001005D
:1017C00021680860204600F008FDC7E710B586B024
:1017D00004461D492068884234D100BF1B48006878
:1017E00040F01000194908600846006800F0100039
:1017F000009000BF00BF00BF14481438006840F0DC
:1018000001001249143908600846006800F0010020
:10181000009000BF00BF022002904FF4C060019012
:1018200001200390022004900720059001A9084898
:10183000FEF796FE2520FFF71AF803221146252011
:10184000FFF722F806B010BD0010014044380240F6
:10185000000002402DE9F84F04460D461646994611
:101860004FF0000A94F86A0020287AD105B116B921
:101870000120BDE8F88F00BF94F86800012801D16D
:101880000220F6E7012084F8680000BF00205834E9
:1018900060612220A074FEF781FF82462680668068
:1018A000583C00BFA068B0F5805F0AD1206920B91C
:1018B00040F2FF10A4F85C001CE0FF20A4F85C00DC
:1018C00018E0A06848B9206918B9FF20A4F85C00A6
:1018D00010E07F20A4F85C000CE0A068B0F1805F0D
:1018E00008D1206918B97F20A4F85C0002E03F20ED
:1018F000A4F85C0000BFB4F85C8024E0B4F85A009F
:10190000401EA4F85A005346002220212046CDF85C
:10191000009000F008FF08B10320AAE7A068B0F526
:10192000805F09D1206938B92F462068406A00EAF3
:1019300008003880AD1C06E02068406A08F0FF010E
:10194000084005F8010BB4F85A000028D6D1202031
:1019500084F86A0000BF002084F8680000BF88E7B0
:10196000FFE7022085E710B5034693F86A002028B8
:101970005BD101B10AB9012010BD00BF93F8680026
:10198000012801D10220F7E7012083F8680000BF99
:101990005965A3F85820A3F85A2000BF9868B0F5FD
:1019A000805F0AD1186920B940F2FF10A3F85C00EB
:1019B0001CE0FF20A3F85C0018E0986848B918699B
:1019C00018B9FF20A3F85C0010E07F20A3F85C00AA
:1019D0000CE09868B0F1805F08D1186918B97F20D1
:1019E000A3F85C0002E03F20A3F85C0000BF0020E9
:1019F000D866222083F86A0000BF002083F86800C0
:101A000000BF1868006840F480701C682060186887
:101A1000806840F001001C68A0601868006840F011
:101A200020001C6820600020A6E70220A4E7704781
:101A30007047000010B50446034800F01DF801216E
:101A40000248FEF7A1FE10BD200102200004024062
:101A500010B5044620684068C0F3402058B12068A3
:101A6000806800F0010030B16FF0010021688860EB
:101A70002046FFF7DFFF10BD01460A68C868106006
:101A80000020704700BFFEE770B504460D460648CB
:101A90000649086008464460856040F6FF71C160F1
:101AA000FEF782FE70BD00000030004010010220F1
:101AB00000B587B000BF1248006840F0020010492E
:101AC00008600846006800F00200019000BF00BFF7
:101AD0000120039003200290012004900220059031
:101AE00002A90848FEF73CFD012211460548FEF711
:101AF0004FFE012202210348FEF74AFE07B000BD57
:101B0000303802400004024000BFFEE7704700008A
:101B100002480068C0F30220704700000CED00E0AE
:101B200010B5002807DA0A07140E054A00F00F0363
:101B30001B1FD45403E00A07130E024A135410BDAE
:101B400018ED00E000E400E070B504460D460D48D5
:101B50000D49086000210C4801618160C460456046
:101B6000FFF7C2FC60200949086002208860600815
:101B700048600C220448FFF7FDFB0C210248FFF7E8
:101B800003FD70BD0004004070010220AC01022082
:101B90007047000010B50023234C236000BF00BF36
:101BA00000BFBFF34F8F00BF00BF00BF231F1868E7
:101BB000C0F34E3100BFC0F3C90200BF43F6E0736B
:101BC00003EA41134FF0404404EA82742343174C64
:101BD000236000BF00BF131EA2F10102EED10B1E55
:101BE000A1F10101E7D100BF00BF00BFBFF34F8FDC
:101BF00000BF00BF00BF0C4B703B1B6843F4803339
:101C0000094C703C236000BF00BF00BFBFF34F8F83
:101C100000BF00BF00BF00BF00BF00BFBFF36F8F9A
:101C200000BF00BF00BF10BD84ED00E060EF00E02A
:101C30007047000001490860704700004004004000
:101C40002DE9F04194B00546884616461F4600240B
:101C500000BF2648006840F08050244908600846CC
:101C6000006800F08050019000BF00BF00BF204816
:101C7000006840F440401E4908600846006800F4CF
:101C80004040019000BF00BF012007900004089071
:101C900002200D9041050E91CDF83C8010951196D3
:101CA000129707A8FEF7F0FF04460CB100BFFEE74D
:101CB000FEF73CFE04460CB100BFFEE70F20029089
:101CC00002200390002004904FF4A05005904FF4A0
:101CD00080500690072102A8FEF770FE04460CB162
:101CE00000BFFEE714B0BDE8F081000040380240BC
:101CF0000070004010B5FEF789FD10BD1448006863
:101D000040F47000124908601248006840F0010079
:101D10001049086000200F49083108600D4800682C
:101D20000D4908400B4908600C48091D0860081F50
:101D3000006820F48020091F0860002005490C314C
:101D400008604FF000600249803908607047000069
:101D500088ED00E000380240FFFFF6FE103000245E
:101D600010B50248FFF729FA10BD00003401022027
:101D7000002202682C4B98420ED0B0F1804F0BD05D
:101D80002A4B984208D02A4B984205D0294B9842BA
:101D900002D0294B984201D1012300E000231BB15E
:101DA00022F070024B681A431F4B984220D0B0F1CA
:101DB000804F1DD01D4B98421AD01D4B984217D012
:101DC0001C4B984214D01C4B984211D01B4B98428C
:101DD0000ED01B4B98420BD01A4B984208D01A4B8E
:101DE000984205D0194B984202D0194B984201D124
:101DF000012300E000231BB122F44072CB681A4398
:101E000002608B68C3620B688362074B984202D002
:101E1000094B984201D1012300E000230BB10B696B
:101E20000363012343617047000001400004004048
:101E300000080040000C0040000401400040014048
:101E4000004401400048014000180040001C0040D0
:101E50000020004030B50023012404FA01F3046A95
:101E60009C430462046A02FA01F52C43046230BD0B
:101E700030B5002400220023056A25F00105056223
:101E8000026A43688469144D2C4024F003040D68F1
:101E90002C4322F002028D682A43104DA84202D042
:101EA0000F4DA84201D1012500E000256DB122F0BF
:101EB0000802CD682A4322F0040223F4807323F43D
:101EC00000734D692B438D692B43436084614D68DA
:101ED0004563026230BD00008FFFFEFF000001403D
:101EE0000004014030B5002400220023056A25F0DB
:101EF00010050562026A43688469164D2C4024F47B
:101F000040740D6844EA052422F020028D6842EAFC
:101F10000512114DA84202D0104DA84201D1012551
:101F200000E0002585B122F08002CD6842EA05126A
:101F300022F0400223F4806323F400634D6943EAF6
:101F400085038D6943EA8503436084614D68856339
:101F5000026230BDFF8FFFFE00000140000401401F
:101F600030B5002400220023056A25F4807505623F
:101F7000026A4368C469164D2C4024F003040D68BE
:101F80002C4322F400728D6842EA0522114DA842CA
:101F900002D0114DA84201D1012500E0002585B1F4
:101FA00022F40062CD6842EA052222F4806223F422
:101FB000805323F400534D6943EA05138D6943EAC6
:101FC00005134360C4614D68C563026230BD000003
:101FD0008FFFFEFF000001400004014030B50022E9
:101FE00000230024056A25F480550562036A4468CD
:101FF000C269104D2A4022F440720D6842EA05225F
:1020000023F400538D6843EA05330B4DA84202D0F8
:102010000A4DA84201D1012500E0002525B124F494
:1020200080444D6944EA85144460C2614D6805648A
:10203000036230BDFF8FFFFE00000140000401403D
:1020400030B5002400220023056A25F4803505629E
:10205000026A4368446D0D4D2C400D682C4322F4F8
:1020600000320D8942EA0542094DA84202D0094DCD
:10207000A84204D123F480334D6943EA0523436029
:1020800044654D688565026230BD00008FFFFEFF2C
:10209000000001400004014030B50024002200236C
:1020A000056A25F480150562026A4368446D0D4D8A
:1020B0002C400D6844EA052422F400120D8942EAFE
:1020C0000552094DA84202D0084DA84204D123F47C
:1020D00080234D6943EA8523436044654D68C565A7
:1020E000026230BDFF8FFFFE00000140000401408E
:1020F00090F8241001F0010139B10168496821F418
:102100000031826A11430268516090F8241001F096
:10211000020139B10168496821F48031C26A114372
:102120000268516090F8241001F0040139B101688F
:10213000496821F48021026B11430268516090F8D4
:10214000241001F0080139B10168496821F4004107
:10215000426B11430268516090F8241001F01001A5
:1021600039B10168896821F48051826B114302689A
:10217000916090F8241001F0200139B1016889685C
:1021800021F40051C26B11430268916090F8241051
:1021900001F0400199B10168496821F48011026C95
:1021A000114302685160016CB1F5801F07D10168CD
:1021B000496821F4C001426C11430268516090F8F3
:1021C000241001F0800139B10168496821F400212F
:1021D000826C114302685160704738B5044600258F
:1021E0000020E066FEF7DAFA05462068006800F095
:1021F000080008280CD16FF07E402B4600224FF4D7
:1022000000110090204600F08EFA08B1032038BD7E
:102210002068006800F0040004280CD16FF07E40B4
:102220002B4600224FF480010090204600F07BFAFC
:1022300008B10320EBE7202084F8690084F86A00E5
:1022400000BF002084F8680000BF00BFDFE770B562
:102250000546AC6B0020A4F85A00A4F852002046B2
:10226000FFF7C9F970BD0168096821F4907102682F
:1022700011600168896821F00101026891602021E4
:1022800080F86A10704710B504462068006820F096
:10229000400021680860202084F869002046FFF78C
:1022A000C7FB002010BD70B50446B4F85C6094F81C
:1022B0006A00222833D1A068B0F5805F0AD1206976
:1022C00040B9656D2068406A30402880606D801C90
:1022D000606507E02068406AF1B20840626D511CF9
:1022E00061651070B4F85A00401E80B2A4F85A001C
:1022F00098B92068006820F4907021680860206810
:10230000806820F0010021688860202084F86A003D
:102310002046FFF78CFB002070BD0020FCE7206802
:10232000806940F00800216888610220F4E700001D
:102330002DE9F0470446002510260027A846A946A7
:102340002169A068084361690843E16940EA010521
:1023500020680068CD49084028432168086020684B
:10236000406820F44050E168084321684860216AD1
:10237000A06940EA01052068806820F430602843A5
:102380002168886000BFC2492068884215D1C148D1
:10239000006800F0030030B1012808D0022804D002
:1023A000032808D105E0012606E0022604E0042601
:1023B00002E0082600E000BFC1E0B749206888427B
:1023C00015D1B448006800F00C0030B1042808D0E2
:1023D000082804D00C2808D105E0002606E00226D3
:1023E00004E0042602E0082600E000BFA7E0AB49B5
:1023F0002068884215D1A748006800F0300030B14D
:10240000102808D0202804D0302808D105E0002664
:1024100006E0022604E0042602E0082600E000BFF1
:102420008DE09F492068884215D19A48006800F0E5
:10243000C00030B1402808D0802804D0C02808D17E
:1024400005E0002606E0022604E0042602E0082655
:1024500000E000BF73E093492068884218D18D489E
:10246000006800F4407048B1B0F5807F0AD0B0F544
:10247000007F05D0B0F5407F08D105E0002606E0DA
:10248000022604E0042602E0082600E000BF56E031
:1024900085492068884218D17E48006800F4406071
:1024A00048B1B0F5806F0AD0B0F5006F05D0B0F537
:1024B000406F08D105E0012606E0022604E004266C
:1024C00002E0082600E000BF39E078492068884231
:1024D00018D17048006800F4405048B1B0F5805FF2
:1024E0000AD0B0F5005F05D0B0F5405F08D105E037
:1024F000002606E0022604E0042602E0082600E0AA
:1025000000BF1CE06A492068884218D16148006811
:1025100000F4404048B1B0F5804F0AD0B0F5004F0C
:1025200005D0B0F5404F08D105E0002606E00226B0
:1025300004E0042602E0082600E000BF00BF00BF60
:10254000E069B0F5004F52D1042E2BD005DC4EB11E
:10255000012E12D0022E3BD11AE0082E2DD0102EC3
:1025600036D136E0FEF70AFB4000616800EB51000F
:10257000B0FBF1F01FFA80F82EE0FEF715FB4000EB
:10258000616800EB5100B0FBF1F01FFA80F823E026
:102590004849606801EB50006168B0FBF1F01FFA38
:1025A00080F819E0FEF716FB4000616800EB51006F
:1025B000B0FBF1F01FFA80F80EE04FF48031606854
:1025C00001EB50006168B0FBF1F01FFA80F803E006
:1025D00000BF4FF0010900BF00BF4FF6F07008EADE
:1025E0000007C8F3420007432068C7604AE0042E92
:1025F0002CD005DC4EB1012E12D0022E3DD11AE0B6
:10260000082E2ED0102E38D138E0FEF7B7FA6168C8
:1026100000EB5100B0FBF1F080B22168C86030E0FF
:10262000FEF7C2FA616800EB5100B0FBF1F080B236
:102630002168C86025E02049606801EB50006168AE
:10264000B0FBF1F080B22168C8601AE0FEF7C2FA70
:10265000616800EB5100B0FBF1F080B22168C86006
:102660000FE04FF40041606801EB50006168B0FB7F
:10267000F1F080B22168C86003E000BF4FF00109AB
:1026800000BF00BF4846BDE8F0870000F369FFEFD8
:1026900000100140903802400044004000480040D3
:1026A000004C004000500040001401400078004001
:1026B000007C00400048E8010024F400014691F845
:1026C000690021282DD1B1F8520068B90868006866
:1026D00020F080000B6818600868006840F0400037
:1026E0000B681860002070478868B0F5805F0BD1D8
:1026F000086948B9CA6C1088C0F308000B68986272
:10270000C86C801CC86405E0CB6C581CC864187881
:102710000B689862B1F85200401EA1F852000020E8
:10272000E1E70220DFE72DE9F04104460D461746B8
:102730009846069E21E0701CF8B12EB1FEF72EF8E7
:10274000A0EB0800B04218D32068006820F4D070D5
:10275000216808602068806820F001002168886096
:10276000202084F8690084F86A0000BF002084F803
:10277000680000BF0320BDE8F0812068C0692840E0
:10278000A84201D1012000E00020B842D3D00020AF
:10279000F1E7000010B524480068C069C0F340109C
:1027A000002840D04FF47A73012220491E48FFF7D9
:1027B00051F81F48008800F4004088BB1C4800887E
:1027C00000F4804070B9194800780A2803D000202E
:1027D0001749088024E01648008840F40040144956
:1027E00008801DE0114800780D2806D110480088A7
:1027F00040F480400E49088012E00C4800780C49F3
:102800000988C1F30D010B4A505409480088401C47
:102810000749088008460088802801DD00200880DC
:102820000148FEF7E9FE10BD20000220140002203E
:10283000120002209000022000BFFEE710B50248FF
:10284000FFF706F910BD00002001022000BF70470D
:1028500010B504460420FEF77FFC0148046010BD5B
:102860001800022030B50446002504E04FF47A70C9
:1028700000F004F86D1CA542F8D330BD70B50346D6
:1028800000224FF0E02675690D4E366803FB06F412
:102890004FF0E026B16910E04FF0E026B0698842C1
:1028A0000BD0884202D20E1A324402E02E1A0E4495
:1028B00032440146A24200D300E0EDE700BF70BD04
:1028C00018000220FDF742FDFDF7A8FF09230222B0
:1028D00019214FF4D870FFF7B3F9D820FFF7B8FFEC
:1028E000FFF7E6F84FF4E13000F03CF8FDF780FD2B
:1028F0006420FFF7B7FF4FF4FA710420FFF7C4F824
:102900006B2140F2F310FFF71FF900220221124859
:10291000FDF73EFF1FE01148006868B910480068E5
:10292000401C0F49086008460068B0F5967F0ED33A
:1029300001200A4908600AE009480068401E084969
:1029400008600846006810B900200449086004487F
:102950000068FFF76FF9DEE7000402400000022084
:102960000400022010B5044609480A4908600846D8
:10297000446000218160C160816101610C2141617D
:10298000FEF7E8FE012204490248FEF7ECFF10BD05
:102990000010014020000220100002204FF0407083
:1029A000E1EE100A70470000000000000000010284
:1029B00003040607080900000000010203040000E8
:1029C000E029000800000220200000003402000876
:1029D000002A000820000220080800005002000819
:1029E00000000000000000000024F40000000000CF
:1029F00000000000000000000000000000000000D7
:04000005080001F9F5
:00000001FF
