:020000040800F2
:10000000B8080220C1020008A93200082132000805
:10001000A5320008B3130008894100080000000061
:10002000000000000000000000000000CD330008C8
:1000300031140008000000002D330008913400083E
:100040008D410008DB020008DB020008DB0200082B
:10005000DB020008DB02000833140008DB020008A2
:100060004914000853140008DB020008DB020008F2
:10007000DB020008DB020008DB020008DB020008EC
:10008000DB020008DB020008DB020008DB020008DC
:10009000DB020008DB020008DB020008DB020008CC
:1000A000DB020008DB020008DB020008DB020008BC
:1000B000DB020008FD340008DB020008DB02000858
:1000C000DB020008DB020008DB020008DB0200089C
:1000D000DB020008E5400008DB020008DB02000844
:1000E0003F140008DB020008DB020008DB02000806
:1000F000DB020008DB020008DB020008DB0200086C
:10010000DB020008DB02000865350008DB0200089E
:10011000DB020008DB020008DB020008DB0200084B
:10012000DB020008DB020008DB020008DB0200083B
:10013000DB020008DB020008DB020008DB0200082B
:10014000DB020008DB020008DB020008DB0200081B
:10015000DB020008DB020008DB020008DB0200080B
:10016000DB020008DB020008DB020008DB020008FB
:10017000DB020008DB020008DB02000800000000D0
:10018000DB020008DB020008DB020008DB020008DB
:10019000DB020008DB020008DB020008DB020008CB
:1001A000DB020008DB020008DB020008DB020008BB
:1001B000DB020008DB020008DB020008DB020008AB
:1001C000DB020008DB02000800000000DB02000880
:1001D000DB020008DB020008DB020008DB0200088B
:1001E000DB020008DB020008DB020008DB0200087B
:1001F000DB020008DB02000800F002F800F051F812
:100200000AA090E8000C82448344AAF10107DA4571
:1002100001D100F046F8AFF2090EBAE80F0013F072
:10022000010F18BFFB1A43F00103184734430000C5
:1002300054430000103A24BF78C878C1FAD8520756
:1002400024BF30C830C144BF04680C607047000050
:100250000023002400250026103A28BF78C1FBD8CF
:10026000520728BF30C148BF0B607047662904F0B1
:100270001E8103681B0A28BF41F08001E42900F0B9
:100280004D80002070471FB504F00CF900F0A2FB70
:1002900004000020002104F0EFF8E0601FBD10B55D
:1002A00010BD00F069FC1146FFF7EDFF03F0D8FF29
:1002B00000F087FC03B4FFF7F2FF03BC03F086FFF6
:1002C0000948804709480047FEE7FEE7FEE7FEE7EA
:1002D000FEE7FEE7FEE7FEE7FEE7FEE70448054926
:1002E000054A064B7047000099340008F9010008E0
:1002F000B8020220B8080220B8040220B804022084
:10030000704700000FB4044910B503AA029800F02A
:100310004FFB10BC5DF814FB0C0002202DE9F041EE
:100320008046D21D22F007020025D2E90002F529FD
:1003300015A614D0011E72F1000106DA0023D0EBDD
:10034000030063EB020211A608E0D8F800108B0747
:1003500001D50FA602E0490701D50EA601251146D9
:10036000002408F1240704E000F076F830323A5512
:10037000641C50EA0102F7D12B4632462146404622
:10038000BDE8F04100F0ADB8000000002D00000015
:100390002B000000200000002DE9F0410F4605462B
:1003A000002028622846E968884770B3252805D0D0
:1003B000D5E901219047286A401CF2E7E968284600
:1003C000002688476C2804460AD0682C08D04C2C9C
:1003D00035D06A2C31D0742C31D07A2C2FD016E045
:1003E000E968064628468847B042044608D16C2E84
:1003F00023D04FF480662846E9688847044606E023
:100400006C2E03D04FF4807601E01EE04026E4B16C
:10041000A4F14100192802D8203446F400663A4677
:10042000214628462E60FFF721FF60B1012808D041
:10043000FF1D27F007070837B4E78026DBE7002613
:10044000D9E73F1DAEE72046B2E7286ABDE8F08154
:10045000704770477047704730B5B0F10A024FEAF5
:10046000900E71F100034EEA817EB0EB0E0061EB5D
:1004700091014FEA101E4EEA017E10EB0E0041EB97
:1004800011114FEA102E4EEA016E10EB0E0041EBF7
:1004900011214FEA104E4EEA014E10EB0E0041EBD7
:1004A0001141401841F100014FEAD00040EA41708B
:1004B0004FEAD10110EB80054FEA810444EA9074C1
:1004C00044EB01046D1944EB0404521BA3414FF0AB
:1004D000000348BF0A3200D530BD401C41F1000185
:1004E00030BD2DE9F0470D4699469246044600F18D
:1004F00024080168880604D5E06921F01001216014
:1005000000E00120A84201DD471B00E00027A169AF
:100510007A1902EB0900081AA0612078C00602D4FB
:100520002046AFF30080002608E0D4E901211AF844
:1005300006009047206A401C761C20624E45F4DB82
:100540002078C0060AD52046AFF3008006E0D4E943
:10055000012130209047206A401C2062381EA7F1FC
:100560000107F4DC07E0D4E9012118F80500904701
:10057000206A401C2062281EA5F10105F3DC2046FC
:10058000AFF300802078000602D50220BDE8F08796
:100590000120FBE770472DE9FF4F0C461E464FF048
:1005A000FF378BB0D2E90001DDF860800A908A46FF
:1005B000C1F30A5505B93D46002108464FF0000039
:1005C000BAF1000F00F4400005DA00EB80004FF4B0
:1005D000400101EA50004FEA9059B9F1010F00DDE6
:1005E000B9460A9850EA4A000ED044F61050A5F2D7
:1005F000FF3545432F14B8F1000F1ED07542291E58
:100600001EDDC9F100021CE0B8F1010F4FF000003F
:1006100001D0302103E0F24305E02154401CB042F8
:10062000FBDB30460022002121540B99C1F80880E1
:10063000C1E900200FB0BDE8F08FBD1B6D1CDEE7E7
:100640004A4600DA694206A800F020FA06AB93E8B1
:10065000070003AB83E8070050460A9900F0EEFA62
:100660008DE80700A0F500501F3800900398002D7A
:1006700009DD42F21F014A46084403A90390684677
:1006800000F04DFD08E0A0F500504A461F3803A9D0
:100690000390684600F057FD8DE807000004000C49
:1006A00003D04FF0FF30410800E01046B8F1000FD2
:1006B00003D00022009215461EE0751E05D4FFF7F8
:1006C000CBFE303262556D1EF9D5B3460122084388
:1006D00002D000227F1C04E02078302801D10022C3
:1006E0007F1E002A099786D01DE0112D07DAFFF73B
:1006F000B3FE303262556D1C50EA0102F5D1084359
:1007000002D00098C8B10EE00021681E05E0235C0D
:10071000625C63542254401E491C8142F7DBAB46A5
:10072000A81B401E0990002004F80B000B98099AA2
:10073000C0F80880C0E9002B7CE711264FF00008C4
:1007400059E72DE9F04F88460446D21D22F00701F3
:1007500091B0D1E90001CDE90A0103F01FFD024685
:100760000B98C00F01D02D2007E02068810701D52C
:100770002B2002E0202101EAC000032A099001D0C9
:10078000072A05DB03464146204600F03FF90BE10E
:100790002078800601D5E06900E00620B8F1650FF9
:1007A000814606D0B8F1660F18D0B8F1670F70D146
:1007B00031E00020B9F1110F009001DB112301E0BD
:1007C00009F101030AAA01A90CA8FFF7E4FEDDE97B
:1007D0000C70002609F10105834647E001204B46D5
:1007E00000904FF000470AAA01A90CA8FFF7D3FE1A
:1007F000DDE90DB00C995D46002610B909F1010044
:100800000D18B9EB050003D4C0F1FF3609F101055D
:10081000A5EB09002BE0B9F1010F01DA4FF0010956
:100820000020B9F1110F0090484601DD112300E0CE
:1008300003460AAA01A90CA8FFF7ADFEDDE90C707A
:100840004D4600268346207800070AD4AB4500DADF
:100850005D4601A8012D04DD411911F8011C302964
:1008600007D04F4502DA17F1040F04DA012082465F
:100870000FE06D1EEEE7002F02DCED1B3E4403E0AF
:10088000781CA84200DD7D1CB81B00F1010A4FF066
:1008900000472078000703D4AA4501DB4FF0FF3A58
:1008A0000021B7F1004F0DF143088DF8431024D01B
:1008B00002202B23002F01DA7F422D230A21021E62
:1008C000A0F1010000DC5FB197FBF1FC97FBF1F2B6
:1008D00001FB1C7C17460CF1300C08F801CDEEE74B
:1008E000A8F1010003702188090501D5452100E028
:1008F0006521A0F1010800F8011C09980FA9A1EBDE
:100900000807FF1D00B10120411901EBEA70A16940
:100910003844081A401EA0612078C00602D4204640
:10092000AFF30080099828B1D4E901219047206AEB
:10093000401C20622078C00622D52046AFF30080FC
:100940001EE0002E04DBB34502DD01A8805D00E05F
:100950003020D4E901219047206A401C2062761C97
:10096000AAF101005FEA000A0AD100F033F8C0687A
:100970000168405CD4E901219047206A401C206254
:10098000281EA5F10105DCDC07E0D4E9012118F8F7
:10099000010B9047206A401C2062381EA7F1010716
:1009A000F3DC2046AFF30080032011B043E60000E3
:1009B000074B70B50D467B4400F015F804462846F9
:1009C00000F0D2F810B14FF0FF3070BD204670BD7E
:1009D0008B380000004870477402022001694A1CED
:1009E00002610878704700B58FB0CDE90131002170
:1009F000059105497944CDE9031011466846FFF792
:100A0000CBFC0FB000BD0000E5FFFFFF2DE9F0417A
:100A10001F46044603260168072A01F4006004DB30
:100A200008B116A505E016A503E008B115A500E07C
:100A300015A521F010002060A069C01EA0610FB1B3
:100A4000401EA0612046AFF300804FB1D4E90121E0
:100A500038469047206A401C2062C01C206206E095
:100A6000206AFAE7D4E9012115F8010B9047761EB8
:100A7000F8D22046AFF30080BDE8F0814E414E0031
:100A80006E616E00494E4600696E66002DE9F047C2
:100A9000814616468AB0334878440DC88DE80D006B
:100AA00030487844801C03AC0DC884E80D0041F642
:100AB0009B300844372190FBF1F290FBF1F5A5F152
:100AC000800501FB12041B3C02D56442012000E0BA
:100AD0000020DFF890A080460027FA44AAF1BE0A61
:100AE0000DE0E00709D03246684607EB47010AEB04
:100AF000810100F028FB8DE8070064107F1C002CAA
:100B0000EFD1184F7F44AC3F18E0E80714D007EB53
:100B100004100DF1180A90E80E008AE80E00C06873
:100B2000F04201D198190890324606A903A800F0B6
:100B30000AFB03AB83E807006D10641C002DE4D1B1
:100B400032466946B8F1000F03A802D000F0E7FA78
:100B500001E000F0F8FAC9E90001C9F808200AB07C
:100B6000BDE8F087AC3A0000007B00F080007047E1
:100B700000487047540202207546FFF7F9FFAE4661
:100B800005006946534620F00700854618B020B599
:100B9000FFF7A4FBBDE820404FF000064FF0000730
:100BA0004FF000084FF0000B21F00701AC46ACE815
:100BB000C009ACE8C009ACE8C009ACE8C0098D4682
:100BC000704710B50446AFF300802046BDE81040E2
:100BD000FFF770BB4FF0013C50F8042B51F8043B79
:100BE0009A4215D1A2EB0C03934313EACC130BD119
:100BF00050F8042B51F8043B9A4209D1A2EB0C03A4
:100C0000934313EACC13E7D04FF00000704700BFC6
:100C1000D01A01BAB1FA81F101F0180122FA01F0FB
:100C2000CB40C1F12001DBB2C0B2C01A2CFA01F3F3
:100C3000D11A914311EAC311E6D170475FEA400C23
:100C400008BF91F0000F4FEA8C234FEAC12243EA1C
:100C500051514FEA1C5018BF00F5F0404FEA3000E8
:100C600018BF41F000415FEA6C5C00F02980BCF1E4
:100C7000FF3F08BF40F080407047130C06BF1204CE
:100C80004FF0100C4FF0000C130E04BF12020CF1C9
:100C9000080C130F04BF12010CF1040C930F04BFD6
:100CA00092000CF1020CD30F04BF52000CF1010CA6
:100CB00011464FF00002A0F11F00A0EB0C0070479E
:100CC00011F0004F08BF704731F000413FF4D5AF3D
:100CD0000B0C06BF09044FF0100C4FF0000C0B0E6C
:100CE00004BF09020CF1080C0B0F04BF09010CF141
:100CF000040C8B0F04BF89000CF1020CCB0F04BF56
:100D000049000CF1010CCCF12003A0EB0C0022FAFD
:100D100003F302FA0CF241EA030100F1010070470B
:100D200020F07F4C80EA030023F07F47ACEB070301
:100D300003F57C5300F0004003F1FF032DE98049E7
:100D40004FEA154B09B44FEA144325EA0B4E24EA47
:100D500003480FF2042606EB132749083E785FEAA2
:100D6000320203FB0667C7F5000707FB06F64FEAEA
:100D700054374FEAD64606F1020607FB066CCCF163
:100D8000005C4FEA1C472CEA074C07FB06F40CFBFF
:100D900006F504EB15464FEA961634BF00204FF0D7
:100DA00000404FEAD13706FB07FC4FEA1C4C0CFB16
:100DB0000BF7D21B03FB0CF761EB07010CFB0EF7E3
:100DC000B0EB074072EB17420CFB08F734BFA2EB05
:100DD0000742B2EB074261EB17414FEA0C444FEA7E
:100DE000910706FB07FC4FEA1C4C0CFB0BF7B0EB22
:100DF000C74072EB573203FB0CF734BFA2EBC7427C
:100E0000B2EBC74261EB57310CFB0EF7B0EBC700FA
:100E100072EB57720CFB08F734BFA2EBC702B2EBC0
:100E2000C70261EB5771039F4FEA816141EA92115A
:100E300004EBCC044FEAD1374FEA826206FB07FC91
:100E400042EA90124FEA80604FEA1C4C0CFB0BF711
:100E5000D21B03FB0CF761EB07010CFB0EF7B0EBA9
:100E6000074072EB17420CFB08F734BFA2EB0742B6
:100E7000B2EB074261EB17414FEA8C554FEA9107FD
:100E800004EB9C2406FB07FC4FEA1C4C0CFB0BF705
:100E9000B0EBC74072EB573203FB0CF734BFA2EB49
:100EA000C742B2EBC74261EB57310CFB0EF7B0EB18
:100EB000C70072EB57720CFB08F734BFA2EBC702F6
:100EC000B2EBC70261EB577115EB4C254FEA81611C
:100ED00041EA92114FEA82624FEAD13742EA901218
:100EE00006FB07FC44F100044FEA80604FEA1C4C0B
:100EF0000CFB0BF7D21B03FB0CF761EB07010CFBA0
:100F00000EF7B0EB074072EB17420CFB08F734BF4B
:100F1000A2EB0742B2EB074261EB174115EB1C1540
:100F20004FEA813141EA92414FEA823242EA9042ED
:100F30004FEA80304FEA0C7644F1000448EA03435C
:100F40004EEA0B484FF0000EB2EB080C71EB0307B2
:100F500024BF624639464EEB0E0E4FF0000B0018D0
:100F6000524149414BEB0B0BB2EB080C71EB030701
:100F70007BF1000B24BF624639464EEB0E0E4FF05C
:100F8000000B0018524149414BEB0B0BB2EB080C24
:100F900071EB03077BF1000B24BF624639464EEB31
:100FA0000E0E51EA020718BF46F0010616EB0E7648
:100FB00055F1000254F1000103D5BDE88901BDE8F7
:100FC0000088BDE88901BDE80048B619524141EBEF
:100FD0000101A3F10103704780807F7E7D7C7B7AD5
:100FE0007978777676757473727171706F6E6E6DD5
:100FF0006C6C6B6A6A69686867666665646463637B
:1010000062616160605F5F5E5E5D5D5C5C5B5B5A00
:101010005A5959585857575656555555545453536D
:1010200052525251515050504F4F4F4E4E4D4D4DC8
:101030004C4C4C4B4B4B4A4A4A4949494848484713
:101040004747474646464545454444444443434351
:101050004342424242414141002B26D4770021D0F5
:101060001CB54FEA370703B44FF010004FF01001E2
:101070004FF000000FBCBDE810400BF1010BBBF1BD
:10108000010F08BF5FEA170722BF12F1010211F139
:1010900001014FF0004143F1000300F0004043EA3A
:1010A00000007047F9D35708DAE746EA064613F11D
:1010B000400F4FEA16461FDD13F1200FDFBF164326
:1010C0000A46002120335B42C8D0C3F1200746EA1C
:1010D000064602FA07F74FEA164646EA0706C3F144
:1010E000200722FA03F201FA07F721FA03F14FF081
:1010F000000342EA0702B1E746EA020646EA06466C
:101100004FEA164646EA0106BCBF46EA0646360CDA
:101110004FF000034FF000024FF000019EE72DE971
:10112000C048934630B491E8380007C831EA400C13
:1011300048BF34EA430C03D5FFF7F2FDFFF78CFFFD
:10114000F0BCBDE800882DE9C048934630B491E872
:10115000380007C810F0804F08BF13F0804F03D14C
:1011600000F005F8FFF778FFF0BCBDE8008820F03C
:101170007F4780EA030023F07F4C07EB0C03A3F5C5
:101180007C5300F00040A3F1FE0392F0000F00F04A
:10119000B38095F0000F00F077802DE901494FEA08
:1011A00011404FEA144621EA004800FB06FC24EAFD
:1011B000064708FB06F607FB08F800FB07F718EBE5
:1011C00006484CEB164C4FEA124B18EB07484FEA17
:1011D00015464CEB174022EA0B4E0BFB06FC25EAAA
:1011E00006470EFB06F607FB0EFE0BFB07F71EEB92
:1011F000064E4CEB164C4FF000061EEB074E4CEB28
:10120000174B18EB0B0840F1000018EB0E0B58EBD6
:10121000000840F100008F1A4FF000013CBFC943A5
:10122000661B14BFB5EB040C00213CBFC943F61B81
:101230004FEA17444EEA8E0E27EA04454FEA1C4750
:1012400004FB07622CEA074C05FB07F70CFB05F6CD
:1012500004FB0CFC16EB074642EB174216EB0C4660
:1012600042EB1C421BEB060658EB0202414146EAE8
:101270009E0601D5BDE80189B619524141EB010135
:10128000A3F10103BDE801894FEA14454FEA114774
:1012900024EA054621EA074C05FB07F406FB07F79D
:1012A0000CFB06F105FB0CFC11EB074144EB17446A
:1012B0004FEA124711EB0C4144EB1C4422EA074C65
:1012C00005FB07F206FB07F70CFB06F605FB0CFC1B
:1012D00016EB074642EB174216EB0C4642EB1C4559
:1012E0006A1854F1000148BF7047B619524141EBEA
:1012F0000101A3F10103704795F0000F37D04FEAC9
:1013000011424FEA144721EA024624EA074C02FB45
:1013100007F106FB07F70CFB06F402FB0CFC14EBD1
:10132000074441EB17414FEA154714EB0C4441EBDE
:101330001C4125EA074C02FB07F506FB07F70CFBEF
:1013400006F602FB0CFC16EB074645EB174516EBC1
:101350000C4645EB1C42121951F1000148BF704781
:10136000B619524141EB0101A3F1010370474FEA65
:1013700014454FEA114724EA054621EA074C05FBCC
:1013800007F106FB07F70CFB06F24FF0000605FB22
:101390000CFC12EB074241EB174112EB0C4251EBF4
:1013A0001C4148BF7047921841EB0101A3F10103B2
:1013B000704700BFFEE7000010B500BF00BF00BFD0
:1013C00000BF00BFBFF34F8F00BF00BF00BF00BF13
:1013D00000BF00BFBFF36F8F00BF00BF00BF002082
:1013E000114908601148006840F400300F49086056
:1013F00000BF00BF00BFBFF34F8F00BF00BF00BFE3
:1014000000BF00BF00BFBFF36F8F00BF00BF00BFB2
:1014100000BF01F08DFF04484C30006840F004002C
:1014200001494C31086010BD50EF00E014ED00E0C0
:10143000704710B54FF4005000F0A8FA10BD10B579
:10144000012000F0A3FA10BD10B5042000F09EFAB0
:1014500010BD10B5082000F099FA10BD00B587B096
:1014600000BF2648006840F0010024490860084693
:10147000006800F00100019000BF00BF00BF0846F7
:10148000006840F0040008600846006800F00400AE
:10149000019000BF00BF00BF0846006840F0800018
:1014A00008600846006800F08000019000BF00BF9F
:1014B000134803900C200290012004900220059014
:1014C00002A9104800F070FA0D4803904FF4005044
:1014D0000290012004900220059002A90A4800F021
:1014E00063FA0A48039001200290022004900590BC
:1014F00002A9074800F058FA07B000BD3038024092
:1015000000002110001C02400008024000001110E1
:10151000000002401FB504460094012001900720FE
:101520000290002003906946074800F025F806481D
:1015300000F05EF90A21044800F0FCF8024800F0CF
:10154000F5F880B204B010BD0C0202202DE9F04184
:1015500007460C460025002607E03846FFF7DAFF6D
:101560000544052002F03EFE761CA642F5DBB5FBE5
:10157000F4F080B2BDE8F08118B50246002000907A
:1015800000BF92F83C00012801D1022018BD0120C3
:1015900082F83C0000BF0868092822D91068C0689A
:1015A0000B780A3B03EB43040723A34098431368DB
:1015B000D860594B0868984207D11068C0680B7A08
:1015C00040EA03601368D8601FE00B780A3B03EB26
:1015D0004303886898401368DB6818431368D86031
:1015E00013E0106800690B7803EB43040723A34062
:1015F0009843136818610B7803EB4303886898409D
:1016000013681B691843136818614868072817D2C4
:101610001068406B0B795B1E03EB83041F23A34010
:10162000984313685863088880B20B795B1E03EBFC
:101630008303984013685B6B18431368586331E069
:1016400048680D2817D21068006B0B79DB1F03EB7D
:1016500083041F23A340984313681863088880B24B
:101660000B79DB1F03EB8303984013681B6B184354
:101670001368186316E01068C06A0B790D3B03EB22
:1016800083041F23A34098431368D862088880B25C
:101690000B790D3B03EB830398401368DB6A184317
:1016A0001368D8621D4B1068984208D10868122848
:1016B00005D11B48006840F48000C3F80403174BB1
:1016C0001068984220D1144B0868984202D00868EC
:1016D000112819D11248006840F40000104B18601E
:1016E0000D4B086898420FD10E4800680E4BB0FBB6
:1016F000F3F000EB80004000009002E00098401EF4
:10170000009000980028F9D100BF002082F83C002A
:1017100000BF00BF3AE700001200001000200140A7
:10172000042301400800022040420F0001460868DF
:10173000C06C704770B504460D460026206880686E
:1017400000F4806078B12068806800F4807050B147
:10175000206C40F02000206400BF002084F83C0092
:1017600000BF012070BD00F03DFA064612E0681C83
:1017700080B125B100F036FA801BA8420AD9206C4E
:1017800040F00400206400BF002084F83C0000BF4B
:101790000320E7E72068006800F002000228E6D195
:1017A0006FF0120021680860206C40F40070206423
:1017B0002068806800F04050B8B9A069A8B92068D6
:1017C000C06A00F4700020B12068806800F4806076
:1017D00058B9206C20F480702064206C00F4805094
:1017E00018B9206C40F0010020640020BAE7000026
:1017F00008B501460020009000BF91F83C00012888
:1018000001D1022008BD012081F83C0000BF08681A
:10181000806800F00100A0B90868806840F001000D
:101820000A6890602E4800682E4AB0FBF2F000EB88
:101830004000009002E00098401E009000980028B0
:10184000F9D10868806800F00100002845D0086CD4
:1018500040F20162904340F4807008640868406878
:1018600000F4806028B1086C20F4005040F48050EF
:101870000864086C00F4805020B1486C20F0060029
:10188000486401E00020486400BF002081F83C006B
:1018900000BF6FF022000A6810601348006800F073
:1018A0001F0058B90868806800F04050A8B908685F
:1018B000806840F080400A6890600EE00B4A08683B
:1018C00090420AD10868806800F0405028B9086842
:1018D000806840F080400A689060002092E7000035
:1018E0000800022040420F00042301400020014074
:1018F000014691F83500022803D080204865012078
:101900007047052081F835000868006820F0010064
:101910000A6810600020F3E710B50446012C07D0D8
:10192000042C1BD0082C1ED0B4F5005F29D123E075
:101930000221154800F04CF90221134800F040F94B
:10194000012805D1002201210F4800F045F904E0EB
:10195000012211460C4800F03FF913E001210A482A
:1019600000F036F90EE00221074800F031F90121BC
:10197000054800F02DF905E00221034800F028F9A0
:1019800000E000BF00BF10BD0004024010B50446D7
:1019900004480068204020B1024804602046FFF758
:1019A000BBFF10BD143C0140F8B502460B460021B8
:1019B00000250024002000BFE4E0012606FA01F51E
:1019C0001E6806EA0504AC4271D15E68022E02D0A0
:1019D0005E68122E13D1CF0802F1200656F82700B8
:1019E0004E07F70E0F26BE40B0434F07FF0E1E698D
:1019F000BE403043CF0802F1200646F827001068A9
:101A00004F000326BE40B0431E7906F003064F0088
:101A1000BE40304310605E68012E08D05E68022E22
:101A200005D05E68112E02D05E68122E13D1906828
:101A30004F000326BE40B0434F00DE68BE40304337
:101A40009060506801268E40B0431E79C6F30016A0
:101A50008E4030435060D0684F000326BE40B043F4
:101A60004F009E68BE403043D0605E6806F08056EE
:101A7000B6F1805FA8D100BF444E366846F4804678
:101A8000424F3E603E46366806F48046009600BFF0
:101A900000BF3F4E8F0856F827008E07370F0F26DE
:101AA000BE40B0433B4EB24202D100262EE068E079
:101AB000394EB24201D1012628E0384EB24201D15E
:101AC000022623E0364EB24201D103261EE0354EF7
:101AD000B24201D1042619E0334EB24201D10526AB
:101AE00014E0324EB24201D106260FE0304EB2422F
:101AF00001D107260AE02F4EB24201D1082605E0A7
:101B00002D4EB24201D1092600E00A268F073F0F71
:101B1000BE4030431E4E8F0846F82700274E3068DF
:101B2000A0435E6806F48036B6F5803F00D12043BE
:101B3000224E3060361D3068A0435E6806F40036E1
:101B4000B6F5003F00D120431C4E361D3060361DD7
:101B50003068A0435E6806F48016B6F5801F00D199
:101B60002043164E08363060361D3068A0435E684C
:101B700006F40016B6F5001F00D120430F4E0C36B8
:101B80003060491C1029FFF418AFF8BD44380240FA
:101B900008380140000002400004024000080240F2
:101BA000000C0240001002400014024000180240E5
:101BB000001C02400020024000240240003C014082
:101BC000024613690B400BB1012000E00020704772
:101BD00042694A40426170470AB1816101E00B04E9
:101BE00083617047014800687047000024000220AC
:101BF00070B504460CB9012070BD4CF6CC4021688C
:101C0000086045F2555021680860D4E9001048602A
:101C10002168A0688860FFF7E5FF054606E0FFF74A
:101C2000E1FF401B302801D90320E5E72068C068A8
:101C30000028F4D120680169E068814203D021685E
:101C4000E068086103E04AF6AA20216808600020E5
:101C5000D2E7000002480068401C01490860704754
:101C60002400022010B50848006840F400700649BE
:101C70000860052000F06AF80F2000F007F800F077
:101C800019F8002010BD0000003C024070B5044669
:101C9000074800684FF47A71B0FBF1F5284600F070
:101CA00093FC00222146501E00F012F8002070BD67
:101CB00008000220704700BF00F01F020121914080
:101CC0004209920002F1E022C2F8001100BF704701
:101CD0002DE9F05F80460D461646002701F0E6FA32
:101CE000074639462A46334601F00700C0F1070A85
:101CF000BAF1040F02D94FF0040A01E0C0F1070A5B
:101D0000D14600F1040ABAF1070F02D24FF0000ADF
:101D100001E0A0F1030AD4464FF0010A0AFA09FAD9
:101D2000AAF1010A0AEA020A0AFA0CFA4FF0010BB8
:101D30000BFA0CFBABF1010B0BEA030B4AEA0B04A9
:101D40002146404601F0BAFABDE8F09F00BF00F01E
:101D50000702064B19684FF6FF031940044B0B436B
:101D600043EA0221014B196000BF70470CED00E00F
:101D70000000FA0538B5002400BF2048006840F094
:101D800080501E4908600846006800F080500090AE
:101D900000BF00BF1A48006840F48030184908604E
:101DA000FFF720FF044607E0FFF71CFF001BB0F51C
:101DB0007A7F01D9032038BD1148406800F4803093
:101DC000B0F5803FF0D10E48006840F400300C4977
:101DD0000860FFF707FF044607E0FFF703FF001B5B
:101DE000B0F57A7F01D90320E5E70548406800F4A3
:101DF0000030B0F5003FF0D10020DCE74038024071
:101E00000070004070B504460D4600266648006824
:101E100000F00F00A8420ED26348006820F00F00C7
:101E20002843614908600846006800F00F00A84296
:101E300001D0012070BD207800F00200022807D1F7
:101E40005A48006820F0F000A1680843574908602C
:101E5000207800F00100002860D06068012807D1D8
:101E6000524808380068C0F34040A0B90120E1E7BB
:101E70006068022807D14D4808380068C0F3406008
:101E800048B90120D6E7494808380068C0F3400047
:101E900008B90120CEE74548006820F003006168DA
:101EA000084342490860FFF79DFE06466068012826
:101EB00010D108E0FFF796FE801B41F2883188427E
:101EC00001D90320B6E73948006800F00C00042867
:101ED000F0D123E06068022810D108E0FFF782FE0D
:101EE000801B41F28831884201D90320A2E72F48A4
:101EF000006800F00C000828F0D10FE008E0FFF7C0
:101F000071FE801B41F28831884201D9032091E79C
:101F10002648006800F00C000028F0D12248006834
:101F200000F00F00A8420ED91F48006820F00F00F3
:101F300028431D4908600846006800F00F00A842C9
:101F400001D0012076E7207800F00400042807D1B2
:101F50001648006820F4E050E1680843134908601F
:101F6000207800F00800082808D11048006820F404
:101F70006040216940EAC1000C49086000F04EF859
:101F80000A49096801F0F001F02292FAA2F2B2FACD
:101F900082F2D140064A515CC840064908600F20D1
:101FA000FFF774FE002045E7003C0240083802407D
:101FB000B244000808000220014800687047000091
:101FC0000800022000B5FFF7F7FF0749096801F490
:101FD000E0514FF4E05292FAA2F2B2FA82F2D1400A
:101FE000024A515CC84000BD08380240C2440008A3
:101FF00000B5FFF7E1FF0749096801F460414FF4BC
:10200000604292FAA2F2B2FA82F2D140024A515CE4
:10201000C84000BD08380240C244000870B5002125
:10202000002200230020274C246804F00C0424B173
:10203000042C04D0082C41D103E0234840E023487D
:102040003EE0204C241F246804F03F011D4C241F57
:10205000246804F4800484B11C4CB4FBF1F5194CE1
:10206000241F246847F6C076344096FAA6F6B6FADE
:1020700086F6F44005FB04F20FE0134CB4FBF1F5D7
:10208000104C241F246847F6C076344096FAA6F612
:10209000B6FA86F6F44005FB04F20A4C241F2468C5
:1020A00004F440344FF4403595FAA5F5B5FA85F5BA
:1020B000EC40641C6300B2FBF3F001E0024800BF97
:1020C00000BF70BD083802400024F40040787D0154
:1020D00038B504460025207800F00100002871D0B2
:1020E000FE48006800F00C0004280DD0FB48006892
:1020F00000F00C00082813D1F848001F006800F415
:102100008000B0F5800F0BD1F44808380068C0F3A8
:102110004040002869D06068002866D1012038BDA1
:1021200000BF6068B0F5803F08D1EC48083800680F
:1021300040F48030E949083908602EE0606868B9E9
:10214000E6480838006820F48030E449083908601F
:102150000846006820F4802008601EE06068B0F542
:10216000A02F0DD1DD480838006840F48020DB49FD
:10217000083908600846006840F4803008600CE0C8
:10218000D6480838006820F48030D44908390860FF
:102190000846006820F48020086000BF606890B1A5
:1021A000FFF720FD054606E0FFF71CFD401B6428F5
:1021B00001D90320B3E7C94808380068C0F340409C
:1021C0000028F1D011E0FFF70DFD054606E0FFF70E
:1021D00009FD401B642801D90320A0E7BF48083847
:1021E0000068C0F340400028F1D1207800F00200E0
:1021F000022873D1B948006800F00C0058B1B74804
:10220000006800F00C00082821D1B448001F0068C5
:1022100000F48000D8B9B14808380068C0F3400025
:1022200020B1E068012801D0012078E7AB480838E8
:10223000006820F0F800F82292FAA2F2B2FA82F2D4
:10224000216991400843A5490839086046E0E068E3
:1022500050B3A2480838006840F001009F4908398F
:102260000860FFF7BFFC054606E0FFF7BBFC401B1C
:10227000022801D9032052E7984808380068C0F3C3
:1022800040000028F1D095480838006820F0F80098
:10229000F82292FAA2F2B2FA82F22169914008433E
:1022A0008E490839086019E08C480838006820F029
:1022B00001008A4908390860FFF794FC054606E0EA
:1022C000FFF790FC401B022801D9032027E7834831
:1022D00008380068C0F340000028F1D1207800F0F1
:1022E0000800082836D16069D0B17C486C3000689D
:1022F00040F0010079496C310860FFF773FC054636
:1023000006E0FFF76FFC401B022801D9032006E717
:1023100072486C300068C0F340000028F1D019E02A
:102320006E486C30006820F001006C496C31086028
:10233000FFF758FC054606E0FFF754FC401B022857
:1023400001D90320EBE665486C300068C0F340001B
:102350000028F1D1207800F00400042871D100BFDA
:102360005E483830006840F080505C493831086081
:102370000846006800F08050009000BF00BF584839
:10238000006840F4807056490860FFF72BFC054652
:1023900006E0FFF727FC401B642801D90320BEE6B6
:1023A0004F48006800F480700028F2D000BFA06899
:1023B000012808D149486830006840F001004749C9
:1023C000683108602DE0A06868B94448683000684A
:1023D00020F001004149683108600846006820F09B
:1023E000040008601DE0A06805280DD13B48683056
:1023F000006840F004003949683108600846006808
:1024000040F0010008600CE034486830006820F0BB
:1024100001003249683108600846006820F0040075
:10242000086000BFA068A8B1FFF7DCFB054609E023
:10243000FFF7D8FB401B41F28831884202D90320C4
:102440006DE61BE0254868300068C0F340000028B6
:10245000EED013E0FFF7C6FB054608E0FFF7C2FB2E
:10246000401B41F28831884201D9032057E61B48BE
:1024700068300068C0F340000028EFD1A06988B33D
:102480001648006800F00C00082873D0A0690228E4
:1024900064D112480838006820F080700F4908396C
:1024A0000860FFF79FFB054606E0FFF79BFB401B1C
:1024B000022801D9032032E6084808380068C0F332
:1024C00040600028F1D1D4E90701084347F6C07203
:1024D00092FAA2F2B2FA82F2616A04E0083802408B
:1024E0000070004058E0914008430122A16AC2EB0D
:1024F00051014FF4403292FAA2F2B2FA82F29140C4
:1025000008434FF0706292FAA2F2B2FA82F2E16AE4
:10251000914008434FF0E04292FAA2F2B2FA82F2FE
:10252000216B914008431D490860081F006840F076
:102530008070091F0860FFF755FB054606E0FFF7AE
:1025400051FB401B022801D90320E8E51348001F76
:102550000068C0F340600028F1D01DE00F48001F64
:10256000006820F080700D49091F0860FFF73AFBF2
:10257000054607E00EE0FFF735FB401B022801D9B6
:102580000320CCE50548001F0068C0F34060002828
:10259000F1D101E00120C2E50020C0E5043802408D
:1025A000042808D14FF0E021096941F004014FF0FF
:1025B000E022116107E04FF0E021096921F00401F8
:1025C0004FF0E0221161704770B504462546681E41
:1025D000B0F1807F01D301200FE0681E4FF0E021B1
:1025E00048610F214FF0FF3000F068FE00204FF0EF
:1025F000E021886107200861002070BD70477047A6
:1026000010B504463348007800F0800000285FD100
:102610003048007800F04000D8B12E48007840F0F3
:1026200080002C49087000212B4800F087FB2B49C3
:10263000086029480068006A4FF6F571084026498D
:102640000968086224480068006A2349096808622A
:102650003EE000201F490870204908601D480078AE
:1026600040F040001B49087000BF1B480068006A2A
:1026700041F21111084068B917480068006A8910D2
:10268000084038B914480068006820F00100124979
:102690000968086000BF00200F49096848620E48B9
:1026A0000068006A4FF6F57108400B490968086236
:1026B00009480068006A40F002000749096808629A
:1026C00005480068006840F0010003490968086097
:1026D00010BD000018000220D00102201C000220C2
:1026E0002DE9F04104460D46164600BF94F8380027
:1026F000012802D10220BDE8F081012084F83800D1
:1027000000BF022084F8390096B9EB68D5E90012C1
:10271000206801F0EFF82068806920F00C00216843
:10272000886120688069A9680843216888613DE064
:10273000042E13D1EB68D5E90012206801F024F9CA
:102740002068806920F44060216888612068806981
:10275000A96840EA01202168886127E0082E12D18B
:10276000EB68D5E90012206801F02DF92068C069F6
:1027700020F00C002168C8612068C069A96808437E
:102780002168C86112E0EB68D5E90012206801F009
:1027900038F92068C06920F440602168C861206869
:1027A000C069A96840EA01202168C861012084F855
:1027B000390000BF002084F8380000BF00BF9AE74E
:1027C00010B504460CB9012010BD94F8390028B9A1
:1027D000002084F83800204600F00CF8022084F82D
:1027E0003900211D206800F0C5FE012084F8390061
:1027F0000020E9E710B586B0044600BF194800681C
:1028000040F00800174908600846006800F008001A
:10281000009000BF00BF00BF12481038006840F0B1
:1028200001001049103908600846006800F00100F6
:10283000009000BF00BF01200190032004900220FF
:1028400003900290059001A90748FFF7ADF8002218
:1028500002213220FFF73CFA3220FFF72CFA06B0B3
:1028600010BD0000403802400000024030B5044670
:102870000D4635B1042D0BD0082D10D00C2D1CD1D8
:1028800014E02068C06840F002002168C86015E0CC
:102890002068C06840F004002168C8600EE020682D
:1028A000C06840F008002168C86007E02068C06880
:1028B00040F010002168C86000E000BF00BF0122A6
:1028C0002946206800F0C8FE2068006840F001003A
:1028D00021680860002030BD10B5044620680069FA
:1028E000C0F34000D8B12068C068C0F34000B0B168
:1028F0006FF002002168086101202076206880695D
:1029000000F0030018B12046FFF77AFE05E02046EC
:1029100000F0BEF8204600F0C5F9002020762068BF
:102920000069C0F38000D8B12068C068C0F380009F
:10293000B0B16FF0040021680861022020762068A1
:10294000806900F4407018B12046FFF759FE05E099
:10295000204600F09DF8204600F0A4F900202076E3
:1029600020680069C0F3C000D8B12068C068C0F317
:10297000C000B0B16FF00800216808610420207623
:102980002068C06900F0030018B12046FFF738FE48
:1029900005E0204600F07CF8204600F083F9002096
:1029A000207620680069C0F30010D8B12068C068A4
:1029B000C0F30010B0B16FF010002168086108206A
:1029C00020762068C06900F4407018B12046FFF7F7
:1029D00017FE05E0204600F05BF8204600F062F9A3
:1029E000002020762068006900F0010058B12068BE
:1029F000C06800F0010030B16FF00100216808618B
:102A0000204600F077F920680069C0F3C01058B183
:102A10002068C068C0F3C01030B16FF0800021683A
:102A200008612046FFF7EAFD20680069C0F3002036
:102A300058B12068C068C0F3C01030B16FF080009A
:102A4000216808612046FFF7D9FD20680069C0F3BE
:102A5000801058B12068C068C0F3801030B16FF0AA
:102A6000400021680861204600F092F92068006962
:102A7000C0F3401058B12068C068C0F3401030B1B6
:102A80006FF02000216808612046FFF7B8FD10BDF7
:102A9000704770B504460D46164600BF94F83800DE
:102AA000012801D1022070BD012084F8380000BF48
:102AB000022084F839000C2E51D005DC4EB1042ED2
:102AC0001ED0082E7AD133E0102E60D0142EF9D10A
:102AD00075E02946206800F0CDFD2068806940F04F
:102AE0000800216888612068806920F0040021685E
:102AF000886120688069296908432168886177E0D6
:102B00002946206800F0F0FD2068806940F40060EC
:102B1000216888612068806920F48060216888616C
:102B200020688069296940EA0120216888615FE0A6
:102B30002946206800F016FE2068C06940F00800B1
:102B40002168C8612068C06920F004002168C8615C
:102B50002068C069296908432168C86148E029469E
:102B6000206800F03DFE2068C06940F400602168E4
:102B7000C8612068C06920F480602168C86120684D
:102B8000C069296940EA01202168C86130E029460E
:102B9000206800F057FE2068406D40F00800216872
:102BA00048652068406D20F0040021684865206871
:102BB000406D296908432168486519E017E02946F6
:102BC000206800F06BFE2068406D40F400602168D2
:102BD00048652068406D20F4806021684865206861
:102BE000406D296940EA01202168486500E000BF86
:102BF00000BF012084F8390000BF002084F83800AD
:102C000000BF00BF4FE710B504460CB9012010BD4E
:102C100094F8390028B9002084F83800204600F0E4
:102C20000DF8022084F83900211D206800F0A2FC74
:102C3000012084F839000020E9E7000010B586B0D3
:102C4000044600BF1548006840F0020013490860C0
:102C50000846006800F00200009000BF00BF00BFFF
:102C60000E481038006840F002000C491039086026
:102C70000846006800F00200009000BF00BF02207C
:102C800001900320049001200390022002900590FF
:102C900001A90348FEF788FE06B010BD4038024087
:102CA000000402407047000030B504460D46012282
:102CB0002946206800F0D0FC0C492068884203D0E7
:102CC0000B492068884201D1012000E0002028B192
:102CD0002068406C40F40040216848642068006827
:102CE00040F0010021680860002030BD0000014074
:102CF000000401400F49097801F08001C9B90D496C
:102D0000097801F04001A1B10A49097801F00101F7
:102D100051B10849097841F08001064A11704FF01D
:102D2000FF31054A116004E002490978491C014A53
:102D300011707047180002201C0002200246002378
:102D400000BF92F83800012801D10220704701200D
:102D500082F8380000BF31B1042907D0082908D013
:102D60000C290CD108E01068436B09E01068836BF4
:102D700006E01068C36B03E01068036C00E000BF5E
:102D800000BF00BF002082F8380000BF1846DDE712
:102D9000704770472DE9F04104462068C5692068F6
:102DA00006682068876805F00F08B8F1000F0AD19F
:102DB00005F0200038B106F0200020B1204600F0D8
:102DC0001BFFBDE8F081B8F1000F79D040F201108F
:102DD0003840002874D005F0010048B106F4807036
:102DE00030B1012021680862E06E40F00100E06629
:102DF00005F0020048B107F0010030B1022021685F
:102E00000862E06E40F00400E06605F0040048B19E
:102E100007F0010030B1042021680862E06E40F044
:102E20000200E06605F0080060B106F0200010B96D
:102E300007F0010030B1082021680862E06E40F020
:102E40000800E066E06E58B305F0200028B106F0F7
:102E5000200010B1204600F0CFFEE06E00F0080028
:102E600020B92068806800F0400018B3204600F0C8
:102E7000A3FE2068806800F04000B8B12068806838
:102E800020F0400021688860606E50B11748616E84
:102E90000865606EFEF72CFD10B1606E016D88470D
:102EA0000DE02046FFF775FF09E009E02046FFF737
:102EB00070FF04E02046FFF76CFF0020E06680E72B
:102EC00005F0800030B106F0800018B1204601F016
:102ED0009DF876E705F0400030B106F0400018B1EB
:102EE000204600F079FE6CE700BF6AE7A13B0008CE
:102EF00010B504460CB9012010BDA06900B100E076
:102F000000BF94F8690028B9002084F868002046C2
:102F100000F02AF8242084F869002068006820F076
:102F2000010021680860204600F0AAFE012800D1B7
:102F3000E2E7606A10B1204600F083FD2068406837
:102F400020F49040216848602068806820F02A00C2
:102F5000216888602068006840F0010021680860EE
:102F6000204600F0E3FDC7E710B586B004461D49D2
:102F70002068884234D100BF1B48006840F0100030
:102F8000194908600846006800F01000009000BF72
:102F900000BF00BF14481438006840F00100124917
:102FA000143908600846006800F00100009000BF76
:102FB00000BF022002904FF4C060019001200390F6
:102FC000022004900720059001A90848FEF7ECFCB8
:102FD0002520FEF770FE032211462520FEF778FE1D
:102FE00006B010BD0010014044380240000002400D
:102FF0002DE9F84F04460D46164699464FF0000A53
:1030000094F86A0020287AD105B116B90120BDE8EC
:10301000F88F00BF94F86800012801D10220F6E77C
:10302000012084F8680000BF00205834606122202D
:10303000A074FEF7D7FD824626806680583C00BF0C
:10304000A068B0F5805F0AD1206920B940F2FF1076
:10305000A4F85C001CE0FF20A4F85C0018E0A06865
:1030600048B9206918B9FF20A4F85C0010E07F205F
:10307000A4F85C000CE0A068B0F1805F08D1206982
:1030800018B97F20A4F85C0002E03F20A4F85C009F
:1030900000BFB4F85C8024E0B4F85A00401EA4F8E5
:1030A0005A005346002220212046CDF8009000F01F
:1030B000E2FF08B10320AAE7A068B0F5805F09D15C
:1030C000206938B92F462068406A00EA0800388035
:1030D000AD1C06E02068406A08F0FF01084005F8D2
:1030E000010BB4F85A000028D6D1202084F86A00D9
:1030F00000BF002084F8680000BF88E7FFE70220D7
:1031000085E710B5034693F86A0020285BD101B12A
:103110000AB9012010BD00BF93F86800012801D151
:103120000220F7E7012083F8680000BF5965A3F883
:103130005820A3F85A2000BF9868B0F5805F0AD1E4
:10314000186920B940F2FF10A3F85C001CE0FF20D2
:10315000A3F85C0018E0986848B9186918B9FF200E
:10316000A3F85C0010E07F20A3F85C000CE09868F6
:10317000B0F1805F08D1186918B97F20A3F85C000E
:1031800002E03F20A3F85C0000BF0020D8662220A8
:1031900083F86A0000BF002083F8680000BF186849
:1031A000006840F480701C6820601868806840F0F7
:1031B00001001C68A0601868006840F020001C68CE
:1031C00020600020A6E70220A4E7704770470000B7
:1031D00010B50446034800F01DF801210248FEF72F
:1031E000F7FC10BD280102200004024010B504467F
:1031F00020684068C0F3402058B12068806800F023
:10320000010030B16FF00100216888602046FFF7AF
:10321000DFFF10BD01460A68C868106000207047D3
:1032200000BFFEE770B504460D4606480649086033
:1032300008464460856040F6FF71C160FEF7D8FC27
:1032400070BD0000003000401801022000B587B0BA
:1032500000BF1248006840F00200104908600846AC
:10326000006800F00200019000BF00BF0120039041
:1032700003200290012004900220059002A9084832
:10328000FEF792FB012211460548FEF7A5FC01223C
:1032900002210348FEF7A0FC07B000BD3038024011
:1032A0000004024000BFFEE77047000002480068CB
:1032B000C0F30220704700000CED00E010B50028BC
:1032C00007DA0A07140E054A00F00F031B1FD45437
:1032D00003E00A07130E024A135410BD18ED00E074
:1032E00000E400E070B504460D460D480D49086045
:1032F00000210C4801618160C4604560FFF783FCD8
:1033000060200949086002208860600848600C223B
:103310000448FFF7BEFB0C210248FFF7C5FC70BD57
:103320000004004078010220B40102207047000030
:1033300010B50023234C236000BF00BF00BFBFF3C4
:103340004F8F00BF00BF00BF231F1868C0F34E316E
:1033500000BFC0F3C90200BF43F6E07303EA4113A4
:103360004FF0404404EA82742343174C236000BFAB
:1033700000BF131EA2F10102EED10B1EA1F101014B
:10338000E7D100BF00BF00BFBFF34F8F00BF00BF3A
:1033900000BF0C4B703B1B6843F48033094C703CFE
:1033A000236000BF00BF00BFBFF34F8F00BF00BF4F
:1033B00000BF00BF00BF00BFBFF36F8F00BF00BFE3
:1033C00000BF10BD84ED00E060EF00E0704700003A
:1033D0000149086070470000400400402DE9F041B9
:1033E00094B00546884616461F46002400BF26486E
:1033F000006840F08050244908600846006800F0EA
:103400008050019000BF00BF00BF2048006840F41A
:1034100040401E4908600846006800F440400190A2
:1034200000BF00BF012007900004089002200D900B
:1034300041050E91CDF83C8010951196129707A882
:10344000FEF746FE04460CB100BFFEE7FEF792FC15
:1034500004460CB100BFFEE70F200290022003904B
:10346000002004904FF4A05005904FF48050069037
:10347000072102A8FEF7C6FC04460CB100BFFEE718
:1034800014B0BDE8F08100004038024000700040F8
:1034900010B5FEF7DFFB10BD1448006840F4700063
:1034A000124908601248006840F0010010490860A5
:1034B00000200F49083108600D4800680D49084098
:1034C0000B4908600C48091D0860081F006820F4BB
:1034D0008020091F0860002005490C3108604FF06A
:1034E00000600249803908607047000088ED00E004
:1034F00000380240FFFFF6FE1030002410B50248ED
:10350000FFF7EAF910BD00003C0102207FB5054637
:103510000C4612481249086000211148816001617F
:10352000C56044600020009003900290012001904B
:103530000B48FFF745F9002269460948FFF7D0F824
:1035400000210748FFF792F905480068C06840F07D
:10355000010003490968C8607FBD0000000C0040FD
:10356000D001022010B50248FFF7B6F910BD0000E7
:10357000D0010220002202682C4B98420ED0B0F1FC
:10358000804F0BD02A4B984208D02A4B984205D046
:10359000294B984202D0294B984201D1012300E0E7
:1035A00000231BB122F070024B681A431F4B984254
:1035B00020D0B0F1804F1DD01D4B98421AD01D4B2A
:1035C000984217D01C4B984214D01C4B984211D0F3
:1035D0001B4B98420ED01B4B98420BD01A4B984273
:1035E00008D01A4B984205D0194B984202D0194B7B
:1035F000984201D1012300E000231BB122F4407264
:10360000CB681A4302608B68C3620B688362074B06
:10361000984202D0094B984201D1012300E00023D7
:103620000BB10B6903630123436170470000014044
:103630000004004000080040000C0040000401406D
:103640000040014000440140004801400018004093
:10365000001C00400020004030B50023012404FA83
:1036600001F3046A9C430462046A02FA01F52C43E4
:10367000046230BD30B5002400220023056A25F025
:1036800001050562026A43688469144D2C4024F0E8
:1036900003040D682C4322F002028D682A43104D6A
:1036A000A84202D00F4DA84201D1012500E000251B
:1036B0006DB122F00802CD682A4322F0040223F4FF
:1036C000807323F400734D692B438D692B43436052
:1036D00084614D684563026230BD00008FFFFEFFCC
:1036E000000001400004014030B500240022002306
:1036F000056A25F010050562026A43688469164D63
:103700002C4024F440740D6844EA052422F0200281
:103710008D6842EA0512114DA84202D0104DA84210
:1037200001D1012500E0002585B122F08002CD689D
:1037300042EA051222F0400223F4806323F400637E
:103740004D6943EA85038D6943EA850343608461DB
:103750004D688563026230BDFF8FFFFE00000140AF
:103760000004014030B5002400220023056A25F43E
:1037700080750562026A4368C469164D2C4024F0C6
:1037800003040D682C4322F400728D6842EA05227E
:10379000114DA84202D0114DA84201D1012500E0EF
:1037A000002585B122F40062CD6842EA052222F4A8
:1037B000806223F4805323F400534D6943EA0513D8
:1037C0008D6943EA05134360C4614D68C5630262B5
:1037D00030BD00008FFFFEFF0000014000040140EB
:1037E00030B5002200230024056A25F480550562C7
:1037F000036A4468C269104D2A4022F440720D6881
:1038000042EA052223F400538D6843EA05330B4D49
:10381000A84202D00A4DA84201D1012500E00025AE
:1038200025B124F480444D6944EA85144460C261A2
:103830004D680564036230BDFF8FFFFE000001404C
:103840000004014030B5002400220023056A25F45D
:1038500080350562026A4368446D0D4D2C400D6849
:103860002C4322F400320D8942EA0542094DA84258
:1038700002D0094DA84204D123F480334D6943EAB4
:103880000523436044654D688565026230BD0000D4
:103890008FFFFEFF000001400004014030B500240E
:1038A00000220023056A25F480150562026A436838
:1038B000446D0D4D2C400D6844EA052422F400129D
:1038C0000D8942EA0552094DA84202D0084DA8428E
:1038D00004D123F480234D6943EA85234360446582
:1038E0004D68C565026230BDFF8FFFFE00000140DC
:1038F0000004014070B50C46154600210022066AFE
:1039000026F0010606628169026A184EB04214D0A0
:10391000B0F1804F11D0164EB0420ED0154EB042CD
:103920000BD0154EB04208D0144EB04205D0144E04
:10393000B04202D0134EB04201D1012600E0002671
:103940001EB121F00301294301E041F0010121F002
:10395000F001F02606EA0316314322F00A0204F0D1
:103960000A0632438161026270BD0000000001401E
:103970000004004000080040000C0040000401402A
:10398000004001400018004070B50C46154600216B
:103990000022066A26F0100606628169026A21F496
:1039A000407141EA052121F470414FF4704606EA66
:1039B0000336314322F0A002A02606EA0416324361
:1039C0008161026270BD70B50C461546002100226F
:1039D000066A26F480760662C169026A21F0030154
:1039E000294321F0F001F02606EA0316314322F4C0
:1039F00020624FF4206606EA04263243C161026267
:103A000070BD70B50C46154600210022066A26F4EA
:103A100080560662C169026A21F4407141EA0521BB
:103A200021F470414FF4704606EA0336314322F424
:103A300020424FF4204606EA04363243C161026256
:103A400070BD90F8241001F0010139B10168496896
:103A500021F40031826A11430268516090F8241009
:103A600001F0020139B10168496821F48031C26A6C
:103A700011430268516090F8241001F0040139B13B
:103A80000168496821F48021026B1143026851608A
:103A900090F8241001F0080139B10168496821F457
:103AA0000041426B11430268516090F8241001F00C
:103AB000100139B10168896821F48051826B11438A
:103AC0000268916090F8241001F0200139B101687A
:103AD000896821F40051C26B11430268916090F82B
:103AE000241001F0400199B10168496821F4801166
:103AF000026C114302685160016CB1F5801F07D15F
:103B00000168496821F4C001426C114302685160A8
:103B100090F8241001F0800139B10168496821F45E
:103B20000021826C114302685160704738B5044629
:103B300000250020E066FEF755F80546206800687D
:103B400000F0080008280CD16FF07E402B460022C0
:103B50004FF400110090204600F08DFA08B10320C8
:103B600038BD2068006800F0040004280CD16FF014
:103B70007E402B4600224FF480010090204600F04A
:103B80007AFA08B10320EBE7202084F8690084F872
:103B90006A0000BF002084F8680000BF00BFDFE7B4
:103BA00070B50546AC6B0020A4F85A00A4F852008A
:103BB0002046FFF7EEF870BD0168096821F49071A6
:103BC000026811600168896821F001010268916052
:103BD000202180F86A10704710B5044620680068FC
:103BE00020F0400021680860202084F86900204609
:103BF000FFF7ECFA002010BD70B50446B4F85C6025
:103C000094F86A00222833D1A068B0F5805F0AD109
:103C1000206940B9656D2068406A30402880606D39
:103C2000801C606507E02068406AF1B20840626D60
:103C3000511C61651070B4F85A00401E80B2A4F89F
:103C40005A0098B92068006820F4907021680860D4
:103C50002068806820F0010021688860202084F8B6
:103C60006A002046FFF7B1FA002070BD0020FCE793
:103C70002068806940F00800216888610220F4E72C
:103C80002DE9F0470446002510260027A846A9463E
:103C90002169A068084361690843E16940EA0105B8
:103CA00020680068CD4908402843216808602068E2
:103CB000406820F44050E168084321684860216A68
:103CC000A06940EA01052068806820F4306028433C
:103CD0002168886000BFC2492068884215D1C14868
:103CE000006800F0030030B1012808D0022804D099
:103CF000032808D105E0012606E0022604E0042698
:103D000002E0082600E000BFC1E0B7492068884211
:103D100015D1B448006800F00C0030B1042808D078
:103D2000082804D00C2808D105E0002606E0022669
:103D300004E0042602E0082600E000BFA7E0AB494B
:103D40002068884215D1A748006800F0300030B1E3
:103D5000102808D0202804D0302808D105E00026FB
:103D600006E0022604E0042602E0082600E000BF88
:103D70008DE09F492068884215D19A48006800F07C
:103D8000C00030B1402808D0802804D0C02808D115
:103D900005E0002606E0022604E0042602E00826EC
:103DA00000E000BF73E093492068884218D18D4835
:103DB000006800F4407048B1B0F5807F0AD0B0F5DB
:103DC000007F05D0B0F5407F08D105E0002606E071
:103DD000022604E0042602E0082600E000BF56E0C8
:103DE00085492068884218D17E48006800F4406008
:103DF00048B1B0F5806F0AD0B0F5006F05D0B0F5CE
:103E0000406F08D105E0012606E0022604E0042602
:103E100002E0082600E000BF39E0784920688842C7
:103E200018D17048006800F4405048B1B0F5805F88
:103E30000AD0B0F5005F05D0B0F5405F08D105E0CD
:103E4000002606E0022604E0042602E0082600E040
:103E500000BF1CE06A492068884218D161480068A8
:103E600000F4404048B1B0F5804F0AD0B0F5004FA3
:103E700005D0B0F5404F08D105E0002606E0022647
:103E800004E0042602E0082600E000BF00BF00BFF7
:103E9000E069B0F5004F52D1042E2BD005DC4EB1B5
:103EA000012E12D0022E3BD11AE0082E2DD0102E5A
:103EB00036D136E0FEF786F84000616800EB51002D
:103EC000B0FBF1F01FFA80F82EE0FEF791F8400009
:103ED000616800EB5100B0FBF1F01FFA80F823E0BD
:103EE0004849606801EB50006168B0FBF1F01FFACF
:103EF00080F819E0FEF792F84000616800EB51008D
:103F0000B0FBF1F01FFA80F80EE04FF480316068EA
:103F100001EB50006168B0FBF1F01FFA80F803E09C
:103F200000BF4FF0010900BF00BF4FF6F07008EA74
:103F30000007C8F3420007432068C7604AE0042E28
:103F40002CD005DC4EB1012E12D0022E3DD11AE04C
:103F5000082E2ED0102E38D138E0FEF733F86168E5
:103F600000EB5100B0FBF1F080B22168C86030E096
:103F7000FEF73EF8616800EB5100B0FBF1F080B253
:103F80002168C86025E02049606801EB5000616845
:103F9000B0FBF1F080B22168C8601AE0FEF73EF88D
:103FA000616800EB5100B0FBF1F080B22168C8609D
:103FB0000FE04FF40041606801EB50006168B0FB16
:103FC000F1F080B22168C86003E000BF4FF0010942
:103FD00000BF00BF4846BDE8F0870000F369FFEF6F
:103FE000001001409038024000440040004800406A
:103FF000004C004000500040001401400078004098
:10400000007C00400048E8010024F400014691F8DB
:10401000690021282DD1B1F8520068B908680068FC
:1040200020F080000B6818600868006840F04000CD
:104030000B681860002070478868B0F5805F0BD16E
:10404000086948B9CA6C1088C0F308000B68986208
:10405000C86C801CC86405E0CB6C581CC864187818
:104060000B689862B1F85200401EA1F8520000207F
:10407000E1E70220DFE72DE9F04104460D4617464F
:104080009846069E21E0701CF8B12EB1FDF7AAFDFE
:10409000A0EB0800B04218D32068006820F4D0706C
:1040A000216808602068806820F00100216888602D
:1040B000202084F8690084F86A0000BF002084F89A
:1040C000680000BF0320BDE8F0812068C069284077
:1040D000A84201D1012000E00020B842D3D0002046
:1040E000F1E7000010B524480068C069C0F3401033
:1040F000002840D04FF47A73012220491E48FEF771
:1041000077FF1F48008800F4004088BB1C480088E7
:1041100000F4804070B9194800780A2803D00020C4
:104120001749088024E01648008840F400401449EC
:1041300008801DE0114800780D2806D1104800883D
:1041400040F480400E49088012E00C4800780C4989
:104150000988C1F30D010B4A505409480088401CDE
:1041600007490880084600887F2801DD0020088074
:104170000148FEF70FFE10BD2800022014000220A7
:10418000120002209800022000BFFEE710B502488E
:10419000FFF72CF810BD00002801022003B401989D
:1041A0004100009850EAC12018BF04204A0D18BFF2
:1041B00040F0010040F2FF72B2EB515F08BF40F0E7
:1041C0000200012808BF052002B0704700BF7047F9
:1041D00010B504460420FEF7E3F90148046010BD61
:1041E0002000022030B50446002504E04FF47A7028
:1041F00000F004F86D1CA542F8D330BD70B503463D
:1042000000224FF0E02675690D4E366803FB06F478
:104210004FF0E026B16910E04FF0E026B069884227
:104220000BD0884202D20E1A324402E02E1A0E44FB
:1042300032440146A24200D300E0EDE700BF70BD6A
:104240002000022000BF054AD26902F04002002A85
:10425000F9D0C2B2014B9A627047000000100140D1
:104260002DED048BFDF7A8F8FDF7FCFC09230222D5
:1042700019214FF4D870FFF7B1F8D820FFF7A8FF45
:10428000FEF7E4FF4FF4E13000F0DAF8FDF7E6F86E
:104290006420FFF7A7FF4FF4FA710420FEF7C2FF76
:1042A0006B2140F2F310FFF71DF86B214FF0FF3048
:1042B000FFF72CF9002202214248FDF78DFC80E037
:1042C0004148006868B941480068401C3F4908609F
:1042D00008460068B0F5967F0ED301203A49086081
:1042E0000AE03A480068401E3849086008460068FD
:1042F00010B900203449086034480068FFF768F8B6
:104300003348007800F08000F0B13148007800F0C8
:104310003F00C51704464FF0FF3300262046A0FBA0
:10432000031705FB037204FB06250C4629480068A9
:10433000241845F1000522462B4627A0FBF7E2FF93
:1043400000202349087000BF14210520FDF7FEF866
:1043500008EE100AB8EE480AB7EEC00A9FED221B1D
:1043600020EE010BB7EEC00BF0EE408AB7EEE80A84
:1043700053EC102B1EA0FBF7C5FF14210520FDF701
:10438000E5F808EE100AB8EE480AB7EEC00A9FED4D
:10439000161B20EE010BB0EE409B9FED1D0B39EE7E
:1043A000401B9FED1D2B81EE020BB3EE091B30EE7F
:1043B000010BB0EE409B53EC192B19A0FBF7A2FFA9
:1043C00000BF7DE70004024000000220040002203C
:1043D000180002201C000220484947483A256C6C0E
:1043E00064207573200D0A006666666666664A3F3D
:1043F0005468652061646320636F6E766572742013
:1044000076616C75652069732025660D0A000000D1
:1044100052B81E85EB51E83F7B14AE47E17A643F0A
:104420005468652074656D7073656E73657220766F
:10443000616C75652069732025660D0A0000000017
:1044400010B5044609480A4908600846446000213E
:104450008160C160816101610C214161FEF748FD0D
:10446000012204490248FEF74CFE10BD0010014035
:10447000280002201000022010B500290AD0087878
:10448000002807D005487844FCF7A4FB002801D099
:10449000002010BD0248784410BD0000FA00000062
:1044A000F20000004FF04070E1EE100A7047FCF798
:1044B00048B90000000000000000010203040607E4
:1044C000080900000000010203040000024000008F
:1044D000000000A00000000005400000000000C82F
:1044E000000000000C4000000000409C00000000A4
:1044F000194000000020BCBE000000003440000055
:10450000BFC91B8E00000004B5400000504BCFD047
:104510006607E2CF010000006C4100003E8251AA14
:10452000DFEEA73401000000D9420000DCB5A0E2B4
:104530003A301F97FFFFFFFFB4450000FD25A0C8DC
:10454000E9A3C14FFFFFFFFFFF3F00000000008015
:1045500000000000FF3F000000000080000000009D
:104560009C450008000002202800000034020008DA
:10457000C4450008280002209008000050020008EE
:104580001C00000043000000F8FFFFFF0C000000CB
:104590000E0000000F0000002E00000000000000D0
:1045A000000000000024F4000000000000000000F3
:1045B00000000000000000000000000000000000FB
:0445C00000000000F7
:04000005080001F9F5
:00000001FF
